:100000000C944B050C94011D0C94DA1C0C94730594
:100010000C9473050C9473050C9473050C94730580
:100020000C9473050C9473050C9473050C94730570
:100030000C9473050C9473050C9473050C94730560
:100040000C94931C0C9473050C944E1D0C94281D59
:100050000C9473050C9473050C9473050C94730540
:100060000C94801D0C94730500000000003E5B4F53
:100070005B3E3E6B4F6B3E1C3E7C3E1C183C7E3C08
:10008000181C577D571C1C5E7F5E1C00183C180016
:10009000FFE7C3E7FF0018241800FFE7DBE7FF30A6
:1000A000483A060E2629792926407F050507407F14
:1000B00005253F5A3CE73C5A7F3E1C1C08081C1C87
:1000C0003E7F14227F22145F5F005F5F06097F017D
:1000D0007F006689956A606060606094A2FFA29468
:1000E00008047E040810207E201008082A1C080836
:1000F0001C2A08081E101010100C1E0C1E0C303884
:100100003E3830060E3E0E06000000000000005F84
:1001100000000007000700147F147F14242A7F2AA0
:100120001223130864623649562050000807030062
:10013000001C2241000041221C002A1C7F1C2A08AE
:10014000083E080800807030000808080808000011
:1001500060600020100804023E5149453E00427F85
:10016000400072494949462141494D331814127FD4
:100170001027454545393C4A494931412111090774
:100180003649494936464949291E000014000000F5
:1001900040340000000814224114141414140041C7
:1001A00022140802015909063E415D594E7C121184
:1001B000127C7F494949363E414141227F414141BC
:1001C0003E7F494949417F090909013E4141517337
:1001D0007F0808087F00417F41002040413F017FA8
:1001E000081422417F404040407F021C027F7F0470
:1001F00008107F3E4141413E7F090909063E4151B9
:10020000215E7F09192946264949493203017F01A8
:10021000033F4040403F1F2040201F3F4038403FA9
:10022000631408146303047804036159494D4300BF
:100230007F4141410204081020004141417F0402F6
:10024000010204404040404000030708002054548D
:1002500078407F284444383844444428384444286B
:100260007F385454541800087E090218A4A49C78BE
:100270007F0804047800447D40002040403D007F1A
:100280001028440000417F40007C047804787C08FA
:100290000404783844444438FC18242418182424CE
:1002A00018FC7C08040408485454542404043F44B3
:1002B000243C4040207C1C2040201C3C4030403CE2
:1002C00044281028444C9090907C4464544C440042
:1002D00008364100000077000000413608000201A6
:1002E0000204023C2623263C1EA1A161123A404092
:1002F000207A38545455592155557941225454780F
:1003000042215554784020545579400C1E527212A7
:100310003955555559395454545939555454580030
:1003200000457C410002457D420001457C407D1234
:1003300011127DF0282528F07C5455450020545496
:100340007C547C0A097F4932494949323A44444441
:100350003A324A4848303A4141217A3A424020787C
:10036000009DA0A07D3D4242423D3D4040403D3C7D
:1003700024FF2424487E4943662B2FFC2F2BFF09A2
:1003800029F620C0887E0903205454794100004496
:100390007D413048484A32384040227A007A0A0A81
:1003A000727D0D19317D2629292F282629292926F4
:1003B00030484D4020380808080808080808382F39
:1003C00010C8ACBA2F102834FA00007B00000814C3
:1003D0002A142222142A14085500550055AA55AA99
:1003E00055AAFF55FF55FF000000FF00101010FF39
:1003F00000141414FF001010FF00FF1010F010F094
:10040000141414FC001414F700FF0000FF00FF1484
:1004100014F404FC141417101F10101F101F1414D0
:10042000141F00101010F0000000001F101010101A
:100430001F10101010F010000000FF10101010100E
:1004400010101010FF10000000FF140000FF00FF4C
:1004500000001F10170000FC04F4141417101714E8
:1004600014F404F40000FF00F7141414141414140A
:10047000F700F7141414171410101F101F1414147D
:10048000F4141010F010F000001F101F0000001FE7
:1004900014000000FC140000F010F01010FF10FF1A
:1004A000141414FF141010101F00000000F010FFAF
:1004B000FFFFFFFFF0F0F0F0F0FFFFFF0000000093
:1004C00000FFFF0F0F0F0F0F3844443844FC4A4A17
:1004D0004A347E02020606027E027E0263554941CC
:1004E000633844443C04407E201E2006027E020203
:1004F00099A5E7A5991C2A492A1C4C7201724C3017
:100500004A4D4D303048784830BC625A463D3E49ED
:100510004949007E0101017E2A2A2A2A2A44445F91
:10052000444440514A444040444A51400000FF0185
:1005300003E080FF000008086B6B08361236243693
:10054000060F090F060000181800000010100030F8
:1005500040FF0101001F01011E00191D1712003C80
:100560003C3C3C0000000000000103070F1F3F7FE0
:100570000080C0E0F0F8FCFEDB40A4A62EAF200017
:10058000A1C8D300408DAED580A800006000000057
:100590000000000000000000000000E0000000007B
:1005A00000000000000000000001E000000000006A
:1005B000000000000000000001F00000000000004A
:1005C0000000000000000003F00000000000000038
:1005D00000000000000007F0000000000000000024
:1005E000000000000007F80000000000000000000C
:1005F000000000000FF800000003C0007E000001B2
:10060000E0007F0FF800000003C000FE000001E0E2
:1006100000FFEFF800000003C000FE000001E00052
:10062000FFFFF800000003C000F00000000F007F93
:10063000FE7FC0000003C000F00000000F003FFE7E
:100640007FF83FF1FBCFFCFEF3BC3DEFE01FFE7FE8
:10065000FF7FFBFFDFFEFEFFBC3DEFE01FC6FFFF9D
:100660007FFBFFDFFEFEFFBC3DEFE00FE3C7FE7840
:100670007BC3DE1EF0FFBC3DEF0007FF87FC787BED
:10068000C3DE1EF0F83C3DEF0001FFFFF0007BC32E
:10069000C01EF0F03C3DEF0001F37FE03FFBC3CF15
:1006A000FEF0F03C3DEF0003E33F807FFBC3DFFE45
:1006B000F0F03C3DEF0007E73C00787BC3DE1EF026
:1006C000F03C3DEF0007FFBE00787BC3DE1EF0F07C
:1006D0003C3DEF0007FFFE00787BC3DE1EF0F03CE0
:1006E0003DEF000FFFFE007FFBFFDFFEF0F03FFD60
:1006F000EFE00FFFFF007FFBFFDFFEF0F03FFDEFBD
:10070000E00FF9FF003E79F9CF9EF0F01F3DE7E0E2
:100710001FF1FF0000000000000000000000001FAB
:1007200080FF007FFFFFFFFFFFFFFFFFFFE01C00D8
:100730007F007FFFFFFFFEB46D888D18E000001F73
:10074000007FFFFFFFFE95AD7DB577E000000F0055
:100750007FFFFFFFFEA5AD9D8D19E0000006007F25
:10076000FFFFFFFEB5ADEDB57EE00000000000012B
:100770008000000000000000000003800000000076
:10078000000000000007C0000000000000000000A2
:1007900007C00000000000000000000FC0000000C3
:1007A0000000000000001FE000000000000000004A
:1007B000001FE00000000000000000003FE000001B
:1007C000000000000000003FF000000000000000FA
:1007D00000007FF0000000000000001FF87FF00024
:1007E0000000000000003FFE7FF00000000000005D
:1007F000003FFF7FF0000000000000001FFFFBE053
:10080000000000000000000FFFF9FFC00000000022
:1008100000000FFFF9FFF800000000000007FFF1E3
:10082000FFFF00000000000003FC73FFFF800000DA
:1008300000000001FE3FFFFF80000000000000FFFD
:100840001E0FFF000000000000007FFE1FFC0000E4
:1008500000000000003FFFFFF80000000000000063
:100860000FDFFFE0000000000000001F19FFC000C4
:100870000000000000003F3CFF00000000000000FE
:10088000007E7CF800000000000000007FFE7C007D
:1008900000000000000000FFFFFC0000000000005E
:1008A0000000FFFFFE0000000000000000FFFFFE50
:1008B0000000000000000001FFEFFE00000000004B
:1008C000000001FFCFFE0000000000000003FF0752
:1008D000FE0000000000000003FC07FE0000000016
:1008E00000000003F003FE00000000000000018093
:1008F00000FE000000000000000000007E0000007C
:10090000000000000000003E0000000000000000A9
:1009100000000C000000000000078000FC00000345
:10092000C0000000078001FC000003C000000007B9
:100930008001FC000003C0000000078001E000000F
:10094000001E000000078001E00000001E007FE3A1
:10095000F79FF9FDE7787BDFC0FFF7FFBFFDFDFFE5
:10096000787BDFC0FFF7FFBFFDFDFF787BDFC0F0C6
:10097000F787BC3DE1FF787BDE00F0F787BC3DE107
:10098000F0787BDE0000F787803DE1E0787BDE00D9
:100990007FF7879FFDE1E0787BDE00FFF787BFFDF3
:1009A000E1E0787BDE00F0F787BC3DE1E0787BDEBC
:1009B00000F0F787BC3DE1E0787BDE00F0F787BC14
:1009C0003DE1E0787BDE00FFF7FFBFFDE1E07FFB6C
:1009D000DFC0FFF7FFBFFDE1E07FFBDFC07CF3F38B
:1009E0009F3DE1E03E7BCFC0000000000000000022
:1009F000000000FFFFFFFFFFFFFFFFFFFFC0FFFF43
:100A0000FFFFFD68DB111A31C0FFFFFFFFFD2B5A0E
:100A1000FB6AEFC0FFFFFFFFFD4B5B3B1A33C0FFDC
:100A2000FFFFFFFD6B5BDB6AFDC0000000002300E1
:100A30002600290000000000240027002A000000F2
:100A40000000250028002B0004040404040404040E
:100A50000202020202020303030303030202030170
:100A60000204081020408001020408102001020442
:100A7000081020408040000000090003020000042C
:100A8000050800000000000000000000002200FF38
:100A90002100AB1E5A2911241FBECFEFD8E0DEBFC4
:100AA000CDBF12E0A0E0B1E0ECE0FBE502C00590B4
:100AB0000D92A434B107D9F724E0A4E4B2E001C058
:100AC0001D92A430B207E1F715E0CAE4D5E004C0F6
:100AD0002197FE010E94422CC934D107C9F70E9418
:100AE0002E1F0C94792D0C9400000895843081F011
:100AF00028F48230E9F08330F9F00895883071F0FD
:100B0000893091F08530B9F4809180008F7D03C0E9
:100B1000809180008F778093800008958091B0004D
:100B20008F778093B00008958091B0008F7DF9CFCA
:100B300084B58F7784BD089584B58F7DFBCF1F93D7
:100B4000CF93DF93282F30E0F901EA58F54F8491D5
:100B5000F901E15AF54FD491F901E85BF54FC491E1
:100B6000CC23A9F0162F81110E947605EC2FF0E01E
:100B7000EE0FFF1FE25CF54FA591B4918FB7F8948B
:100B8000EC91111108C0D095DE23DC938FBFDF916B
:100B9000CF911F910895DE2BF8CFCF93DF9390E094
:100BA000FC01E15AF54F2491885B954FFC0184913B
:100BB0008823D1F090E0880F991FFC01EC5CF54F81
:100BC000A591B491FC01E25CF54FC591D4916230DE
:100BD00071F49FB7F8943C91822F809583238C9376
:100BE000E8812E2B28839FBFDF91CF9108958FB787
:100BF000F894EC912E2B2C938FBFF6CFCF92DF92EF
:100C0000EF92FF926FB7F89480910F0390911003C9
:100C1000A0911103B091120350910E0326B535B384
:100C2000432F417030FF04C041E02F3F09F440E002
:100C30006FBF6C017D0137E0CC0CDD1CEE1CFF1C8E
:100C40003A95D1F7C50ED11CE11CF11CC81AD90A7E
:100C5000EA0AFB0A880F991FAA1FBB1FC81AD90AE4
:100C6000EA0AFB0A63E0CC0CDD1CEE1CFF1C6A9553
:100C7000D1F730E0A9ECB5E00E94182C672F782F4F
:100C8000892F99276C0D7D1D8E1D9F1D442321F0FA
:100C900067537A4F8F4F9F4FFF90EF90DF90CF9029
:100CA00008958F929F92AF92BF92CF92DF92EF9270
:100CB000FF924B015C010E94FE056B017C010E94CA
:100CC000FE056C197D098E099F09683E73408105F8
:100CD0009105A8F321E0821A9108A108B10888EED5
:100CE000C80E83E0D81EE11CF11C81149104A104FC
:100CF000B10429F7FF90EF90DF90CF90BF90AF90B5
:100D00009F908F900895F89489B18C7080934C02D5
:100D100080914C028C3079F480914A02882359F0FA
:100D200080914C01815080934C0110924B021092A3
:100D30004A027894089580914C028430D1F781E082
:100D400080934B02F6CFF89489B18C7080934C025B
:100D500080914C028C3079F480914B02882359F0B9
:100D600080914C018F5F80934C0110924B02109246
:100D70004A027894089580914C028830D1F781E03E
:100D800080934A02F6CF089508950895AF92BF92D6
:100D9000CF92DF92EF92FF920F931F93CF93DF9347
:100DA0006C017B018B01040F151FEB015E01AE1876
:100DB000BF08C017D10759F06991D601ED91FC9198
:100DC0000190F081E02DC6010995892B79F7C501C5
:100DD000DF91CF911F910F91FF90EF90DF90CF9017
:100DE000BF90AF900895FC01538D448D252F30E0C6
:100DF000842F90E0821B930B541710F0CF96089528
:100E000001970895FC01918D828D981761F0A28D54
:100E1000AE0FBF2FB11D5D968C91928D9F5F9F731A
:100E2000928F90E008958FEF9FEF0895FC01918DD0
:100E3000828D981731F0828DE80FF11D858D90E03D
:100E400008958FEF9FEF0895FC01918D228D892FDA
:100E500090E0805C9F4F821B91098F7399270895C2
:100E600087E193E00E94240721E0892B09F420E028
:100E7000822F089580E090E0892B29F00E943007AE
:100E800081110C9400000895FC01A48DA80FB92FC6
:100E9000B11DA35ABF4F2C91848D90E001968F73A2
:100EA0009927848FA689B7892C93A089B1898C91C1
:100EB000837080648C93938D848D981306C0028810
:100EC000F389E02D80818F7D80830895EF92FF92DA
:100ED0000F931F93CF93DF93EC0181E0888F9B8D5D
:100EE0008C8D98131AC0E889F989808185FF15C017
:100EF0009FB7F894EE89FF896083E889F98980813A
:100F00008370806480839FBF81E090E0DF91CF9108
:100F10001F910F91FF90EF900895F62E0B8D10E02A
:100F20000F5F1F4F0F731127E02E8C8D8E110CC099
:100F30000FB607FCFACFE889F989808185FFF5CFE4
:100F4000CE010E944407F1CFEB8DEC0FFD2FF11D78
:100F5000E35AFF4FF0829FB7F8940B8FEA89FB8921
:100F600080818062CFCFCF93DF93EC01888D88237F
:100F7000B9F0AA89BB89E889F9898C9185FD03C0FC
:100F8000808186FD0DC00FB607FCF7CF8C9185FFE1
:100F9000F2CF808185FFEDCFCE010E944407E9CFDB
:100FA000DF91CF910895EF92FF920F931F93CF930C
:100FB000DF93EC01EC80FD806E157F050CF070C0B6
:100FC00057FF04C0240F351F50E040E08E819F8101
:100FD000FA01E20FF31F8E179F071CF49C01241BDC
:100FE000350B121613060CF05BC0922F842F8695DA
:100FF000869586958E9DD0018F9DB00D11246A0F28
:101000007B1FAF8DB8A1A60FB71F477049F188E0CD
:10101000841B482F682F70E0FB01E059FA4FE491E0
:10102000281708F063C0621B71092FEF30E002C07F
:10103000359527956A95E2F7E2230130110539F0DD
:10104000B0F10230110561F58C91E82702C08C9156
:10105000E82BEC93941720F12C813D81A20FB31F54
:10106000E92FE41BE83078F00230110521F58E2FCE
:101070009C9190959C932C813D81A20FB31F885029
:101080008830B0F7E770EE2359F0F0E0E859FA4FF6
:10109000E49101301105F9F010F10230110519F158
:1010A000DF91CF911F910F91FF90EF900895E09500
:1010B0008C91E823CECF81E00115110509F480E081
:1010C00081959E2F8C932C813D81A20FB31F985048
:1010D0009830C0F7D7CF8C91E82BEC93E1CFE09517
:1010E0008C91E823FACF8C91E827F7CF01301105D6
:1010F00009F4ADCFE0F20230110509F4A5CFAE0D31
:10110000BF1DAECF0F931F93CF93DF9377FF04C024
:10111000260F371F70E060E0DC011496CD91DC9162
:10112000FB01E20FF31FCE17DF071CF49E01261B05
:10113000370B121613064CF5FA0157FD3796A3E04C
:10114000F595E795AA95E1F7EC9FD001ED9FB00DDD
:10115000FC9FB00D11246A0F7B1FDC015F96ED919F
:10116000FC91E60FF71F4770552781E090E001C022
:10117000880F4A95EAF7482F0130110559F0A8F079
:101180002E0F3F1F02301105E1F0DF91CF911F912B
:101190000F9108952E0F3F1FE217F307B1F38191CE
:1011A000DF011197842B8C93F7CF80952E0F3F1F73
:1011B000E217F30751F39191DF01119798239C9364
:1011C000F7CFE217F30709F38191DF011197842725
:1011D0008C93F7CF0F931F93FA01DC0156964C9135
:1011E00056974230E9F04330A1F1413061F5149651
:1011F0004D915C91DA01AE1BBF0BFD01E21BF30BBD
:1012000077FD0BC0DC0116964D915C916417750754
:1012100024F4AB01BF010E9482081F910F91089531
:1012200014964D915C91DA01A61BB70BBD0161507C
:101230007109DC0116964D915C91DA01AE1BBF0B72
:10124000FD01E21BF30B77FDE8CFAF010E94D3074E
:10125000E4CF16964D915C91DA01A61BB70BBD0148
:1012600061507109CDCF0F931F93FA01DC0156969F
:101270004C9156974230A9F0433091F1413019F525
:1012800014964D915C91DA01AE1BBF0BFD013197B5
:10129000F7FD04C0AB01BF010E94D3071F910F915E
:1012A000089516964D915C91DA01AE1BBF0BFD01BE
:1012B0003197DC0114964D915C91DA01A61BB70BB6
:1012C000BD01621B730BF7FDE9CFDC0116964D9152
:1012D0005C91E417F50714F7AF010E948208DECF96
:1012E00016964D915C91DA01A61BB70BBD01621BEE
:1012F000730BCECFFC0177FD64C0808591856817A4
:1013000079070CF05EC057FD5CC082859385481755
:1013100059070CF056C086898230B1F0833029F12C
:10132000813041F484819581841B950BAB01BC0114
:10133000615071092130310509F108F443C02230B0
:10134000310509F463C0089584819581DC01A61BF1
:10135000B70BBD016150710986819781DC01A41B27
:10136000B50BAD0141505109E5CF86819781861BB0
:10137000970BBA01AC0141505109DCCFCA0157FDAE
:101380000796A3E095958795AA95E1F7A481B58185
:101390008A9F90018B9F300D9A9F300D1124620F10
:1013A000731F078CF0A1E02DE60FF71F477055273C
:1013B00021E030E001C0220F4A95EAF78081822BBC
:1013C00080830895CA0157FD079633E09595879568
:1013D0003A95E1F7A481B5818A9F90018B9F300DEA
:1013E0009A9F300D1124620F731F078CF0A1E02D1E
:1013F000E60FF71F4770552781E090E001C0880F86
:101400004A95EAF7809590818923DACFCA0157FD82
:10141000079623E0959587952A95E1F7A481B581F4
:101420008A9F90018B9F300D9A9F300D1124620F7F
:10143000731F078CF0A1E02DE60FF71F47705527AB
:1014400021E030E001C0220F4A95EAF7808182272F
:10145000B7CF08958EBD00000DB407FEFDCF8EB549
:1014600008958CBD9DBD08950895FC016370668B41
:101470008481958126813781613039F0633029F08C
:1014800091878087338722870895318720879387C4
:10149000828708952F923F924F925F926F927F9230
:1014A0008F929F92AF92BF92CF92DF92EF92FF9274
:1014B0000F931F93CF93DF93CDB7DEB76A970FB625
:1014C000F894DEBF0FBECDBF9A8F898F7A83698370
:1014D0004A01D22E18870F833701BC2CDC015996A4
:1014E0002D913C915A972115310509F015C1189697
:1014F0008D919C911997681779070CF0D7C11A96AE
:101500008D919C91481759070CF0D0C14C2C512C4F
:10151000B6E0CB9E600D711D11247C876B8716167B
:1015200017060CF0C3C1EA2DF0E0FA87E98793E0D3
:10153000EE0FFF1F9A95E1F7F88BEF87CF01840F2D
:10154000951F181619060CF0B1C1A98DBA8D5896C1
:101550008C91811104C0BFEABD1508F4D394A98D04
:10156000BA8DED91FC9111970284F385E02DCD01A8
:101570000995B5E0DB9EC0011124E981FA81FC8365
:10158000EB83312C212C9C0128593F4F388F2F8B16
:101590004A2D50E05E8B4D8BEF89F88DE20DF31DE7
:1015A00044919E828D82D12CC12C69817A81620DF9
:1015B000731D7A8B698B842F90E09C8B8B8BE98DCC
:1015C000FA8DA081B18140FF82C0F1E0BF126FC0EF
:1015D000AF126DC01C96ED91FC912F813885A4014E
:1015E0004C0D5D1D69897A89898D9A8D0995EB89E4
:1015F000FC89F595E7954E2F5FEFC51AD50A6D81E9
:101600007E818D899E89680F791F7E836D8398E026
:10161000C916D10481F6AFEF2A1A3A0AEB81FC8190
:10162000E40DF51DFC83EB83F5E02F16310409F082
:10163000B3CF2F81388526153705B9F0A98DBA8D1E
:10164000ED91FC91B1E0BB1257C0AB1255C069815E
:101650007A816B5F7F4F0088F189E02D830128E05C
:1016600030E0A401898D9A8D0995A98DBA8DED91EF
:10167000FC9111970688F789E02DCD016A960FB687
:10168000F894DEBF0FBECDBFDF91CF911F910F91B8
:10169000FF90EF90DF90CF90BF90AF909F908F9092
:1016A0007F906F905F904F903F902F9009941E967F
:1016B000ED91FC91EF80F88409851A8592014D81A6
:1016C0005E816B817C81898D9A8D099590CF2F8168
:1016D00038852615370509F48ACF31E0B31207C0E3
:1016E000A31205C01C96ED91FC91930178CF1E9634
:1016F000ED91FC917301E0CF6B857C8564197509D0
:101700000684F785E02D73010F8518899201A401E5
:10171000898D9A8D0995A9CFF901349694913297C4
:1017200045915491D91AB7E0DB9E400D511D11240B
:10173000F901259134913C8B2B8BFA012590349043
:10174000FA013296749031963491398B32966490C6
:101750003196449041E04C1518F04A1508F07FC0CE
:10176000662D062C000C770B7C836B83842D042C58
:10177000000C990B9E838D83A98DBA8DED91FC9100
:1017800011970284F385E02DCD010995512CD12CC0
:10179000C12CEA2DF0E0FA87E9872B2D30E03C8759
:1017A0002B87A401440D511D47FC5A95588F4F8B30
:1017B00069817A81660D711D67FC7A957E876D87D8
:1017C0007989C71608F051CF2C2D30E04D815E810C
:1017D000420F531FA985BA854A9FC0014B9F900DA8
:1017E0005A9F900D1124FC01E80DF91DF88BEF872D
:1017F000852D612C4F89588D420F531F5E8B4D8B69
:10180000671408F050C044244394480E877041F494
:10181000C1010196EB89FC89E20DF31DD4901C01F6
:10182000D7FE19C0A98DBA8DED91FC91662D70E09F
:10183000B1E0BB1219C0AB1217C02D853E85620FF7
:10184000731F0484F585E02D2F8138854D895E89CD
:10185000898D9A8D0995DD0C6394842DD1CF1E82DC
:101860001D821C821B8288CF4B815C81640F751F97
:10187000AB85BC856A9FC0016B9F900D7A9F900DD0
:10188000112469817A81680F791F0684F785E02D1C
:10189000EF80F88409851A859D014F855889898DC7
:1018A0009A8D0995D8CF570CC3948ACF6A960FB6F4
:1018B000F894DEBF0FBECDBFDF91CF911F910F9186
:1018C000FF90EF90DF90CF90BF90AF909F908F9060
:1018D0007F906F905F904F903F902F9008958F92E0
:1018E0009F92AF92CF92EF92FF920F931F93CF935D
:1018F000DF93EC01262F898D9A8D009709F051C056
:101900006A30D1F41D861C868D8948E0849F900141
:1019100011248E859F85820F931F9F878E8781E07C
:1019200090E0DF91CF911F910F91FF90EF90CF90BA
:10193000AF909F908F9008956D3089F3CC88AD88DB
:101940008F898823C1F08C859D8536E0C39E800DEC
:10195000911D1124488559854817590764F44E850F
:101960005F851D861C8638E0A39EC0011124840F6C
:10197000951F9F878E87EA88FB88088919894E857D
:101980005F856C857D85CE010E944A0A2C898C85F5
:101990009D8546E0249F800D911D11249D878C8795
:1019A000BECF6A3069F41D861C86FC013896E4912E
:1019B0002D898E859F85E29F800D911D1124ADCFCD
:1019C0006D3009F4ACCFFC0134963491631708F400
:1019D000A6CF3296E491E61708F4A1CFFC01329627
:1019E00085909490462F431B342F47E0349F800C02
:1019F000911C1124F401329634913196E4913323F1
:101A0000A9F1EE2399F1CC88F4013596E491AD88E3
:101A10004F89442301F10E2E000CFF0BE30FF11D43
:101A2000CE9EA001CF9E500D11246C857D85460F62
:101A3000571F68857985641775076CF44E855F8537
:101A40001D861C86FC013896E491AE9E400D511D0A
:101A500011245F874E87EA88FB88088919894E859B
:101A60005F856C857D85CE010E944A0AF40134961B
:101A7000E4912C898C859D85E29F800D911D112418
:101A80008DCF682F80EC93E00C946F0C6F927F9257
:101A90008F929F92AF92BF92CF92DF92EF92FF927E
:101AA0000F931F93CF93DF93EC016B015A01390120
:101AB0004801E881F9810284F385E02D0995E881E8
:101AC000F9810288F389E02D87019301A501B60110
:101AD000CE010995A501480D591D41505109E881D4
:101AE000F9810288F389E02D9301B601CE010995B1
:101AF000E881F9810088F189E02D9401A501B60102
:101B0000CE010995C60CD71CB60161507109E88158
:101B1000F9810088F189E02D9401A501CE01099594
:101B2000E881F9810688F789E02DCE01DF91CF9118
:101B30001F910F91FF90EF90DF90CF90BF90AF90EB
:101B40009F908F907F906F9009946F927F928F9269
:101B50009F92AF92BF92CF92DF92EF92FF920F933C
:101B60001F93CF93DF935C01EB016A0149013801B8
:101B70008701DC01ED91FC916217730719F564167A
:101B800075062CF0962D872D3A01C92ED82E960178
:101B9000261937092F5F3F4F048CF58DE02DA301E7
:101BA000BE01C5010995DF91CF911F910F91FF9063
:101BB000EF90DF90CF90BF90AF909F908F907F90ED
:101BC0006F9008954615570591F42617370724F0AE
:101BD000892D4B01C22FD82F9E01281939092F5F5B
:101BE0003F4F068CF78DE02DA601B401DACF0284B9
:101BF000F385E02D0995D501ED91FC910488F589D7
:101C0000E02D83019401A601BE01C5010995D5010E
:101C1000ED91FC910688F789E02DC501DF91CF9108
:101C20001F910F91FF90EF90DF90CF90BF90AF90FA
:101C30009F908F907F906F900994EF92FF920F93F7
:101C40001F93DC011A960D911C911B9718962D91EC
:101C50003C911997ED91FC9100A0F1A1E02D7B0141
:101C600050E040E070E060E009951F910F91FF9017
:101C7000EF9008954F925F926F927F928F929F9212
:101C8000AF92BF92CF92DF92EF92FF920F931F938A
:101C9000CF93DF936C012B015A0139014801DC011C
:101CA000ED91FC910284F385E02D0995E201640C2D
:101CB000751CD601ED91FC91C615D7055CF4008822
:101CC000F189E02D87019401A501BE01C6010995A6
:101CD0002196EFCF0688F789E02DC601DF91CF91DD
:101CE0001F910F91FF90EF90DF90CF90BF90AF903A
:101CF0009F908F907F906F905F904F9009948F92FC
:101D00009F92AF92BF92CF92DF92EF92FF920F938A
:101D10001F93CF93DF93EC015B014A016901E881D6
:101D2000F9810284F385E02D099595012C0D3D1D67
:101D300021503109E881F9810488F589E02D780185
:101D40008401A401B501CE010995E881F9810688D5
:101D5000F789E02DCE01DF91CF911F910F91FF9078
:101D6000EF90DF90CF90BF90AF909F908F900994AD
:101D70008F929F92AF92BF92CF92DF92EF92FF929B
:101D80000F931F93CF93DF93EC015B014A0169012D
:101D90007801E881F9810284F385E02D0995C80C6A
:101DA000D91C860101501109E881F9810488F5895F
:101DB000E02D9501A401B501CE010995E881F981D5
:101DC0000688F789E02DCE01DF91CF911F910F9109
:101DD000FF90EF90DF90CF90BF90AF909F908F904B
:101DE0000994EF92FF920F931F93DC01ED91FC9108
:101DF00000A0F1A1E02D09951F910F91FF90EF90A8
:101E000008950F931F93DC01ED91FC91068CF78DE3
:101E1000E02D09951F910F9108950F931F93DC01F9
:101E2000ED91FC91048CF58DE02D09951F910F919A
:101E30000895DC01ED91FC910084F185E02D099479
:101E40003F924F925F926F927F928F929F92AF924A
:101E5000BF92CF92DF92EF92FF920F931F93CF9397
:101E6000DF935C017B014A016901390187E0680E5B
:101E7000711C93E0759467949A95E1F72B01400EDD
:101E8000511E10E000E0312CD0E0C0E0CE018770A0
:101E90009927330C892B59F4FE0183E0F595E795DA
:101EA0008A95E1F7E00FF11FE80DF91D349037FE38
:101EB0000AC021E030E0A701B5016C0F7D1F80EC66
:101EC00093E00E94190F2196CC16DD06F9F68FEFEC
:101ED000E81AF80A060D171DE414F504A9F6DF91B7
:101EE000CF911F910F91FF90EF90DF90CF90BF9017
:101EF000AF909F908F907F906F905F904F903F90AA
:101F000008952F923F924F925F926F927F928F929D
:101F10009F92AF92BF92CF92DF92EF92FF920F9378
:101F20001F93CF93DF9300D000D000D0CDB7DEB7A2
:101F30003C016A013E832D83FC82EB825801A41A86
:101F4000B50AB7FE03C0B194A194B1088D809E80FC
:101F5000861A970A97FE03C09194819491088A1477
:101F60009B045CF0902F812F0D811E819D838E83B9
:101F70009C2D8D2D6B01692F782F0C151D055CF0A4
:101F80009D818E817E836D83692F782F902F812F85
:101F90008601C92ED82E1601201A310A2B012D8157
:101FA0003E81421A530A57FE03C05194419451088E
:101FB000710137FE03C03FEFE31AF30AF594E7948B
:101FC0008D819E81861797075CF5A1E0B0E0BA830A
:101FD000A983C016D1064CF1D301ED91FC91048484
:101FE000F585E02D2B813C81A8016D817E818A14CD
:101FF0009B041CF04D815E81B801C3010995E41872
:10200000F508F7FE0AC02D813E8189819A81280F4B
:10201000391F3E832D83E20CF31C0F5F1F4FD9CF76
:102020002FEF3FEF3A832983D4CF26960FB6F8944B
:10203000DEBF0FBECDBFDF91CF911F910F91FF90FB
:10204000EF90DF90CF90BF90AF909F908F907F9058
:102050006F905F904F903F902F900895089585ED79
:102060008093BC008091BC0084FDFCCF1092DD0207
:1020700008952091AD02260F3327331F21323105F9
:10208000ECF42091DD02FC0190E080E0243069F066
:1020900082E00895A091AD022191AC0143575D4FBC
:1020A000A40FB52FB11D2C930196861798F380913C
:1020B000AD02680F6093AD0280E0089581E008955D
:1020C0009B01AC0160E070EC88EA90E00E94CF2BAD
:1020D0002051310941095109569547953795279562
:1020E0002093B8000895E091DF028091DE02E817A6
:1020F00030F4F0E0E359FD4F808190E008958FEFD8
:102100009FEF08959091DF028091DE022FEF3FEF65
:10211000981748F4E92FF0E0E359FD4F208130E0B3
:102120009F5F9093DF02C90108958091DE02909134
:10213000DF02891B990B0895CF92DF92EF92FF92F5
:102140000F931F93CF93DF937C01CB018A012091E2
:102150001603222389F0EB016B01C40ED51ECC15AA
:10216000DD0569F06991D701ED91FC910190F08155
:10217000E02DC7010995F3CF642F0E943910C801E3
:10218000DF91CF911F910F91FF90EF90DF90CF9053
:102190000895CF93DF931F92CDB7DEB76983209167
:1021A00016032223F9F020911303203258F021E086
:1021B00030E0FC013383228390E080E00F90DF91D8
:1021C000CF91089580911403E82FF0E0E35BFD4F79
:1021D000998190838F5F809314038093130381E030
:1021E00090E0ECCF61E0CE0101960E943910F7CF6C
:1021F0009091130381E0913208F043C08091DD0299
:102200008111FCCF8091150322E02093DD0221E0B3
:102210002093DC022FEF2093D0022DE432E03093A4
:10222000D2022093D1021092D4029093D302109242
:10223000D5029091D502880F892B8093D502809189
:10224000DB02813029F51092DB028091D502809368
:10225000BB008091BC0083FDF8CF85EC8093BC006F
:102260008091DD028230E1F38091D0028F3F91F0C6
:102270008091D002803281F08091D002803371F061
:1022800084E0109214031092130310921603089521
:1022900085EEE4CF80E0F5CF82E0F3CF83E0F1CFAD
:1022A000EF92FF920F931F93CF93DF937C01C62F82
:1022B0008091DD039091DE03009709F459C02091CD
:1022C000E10331E0309316032093150310921403B9
:1022D00010921303DC01ED91FC910190F081E02D4F
:1022E00060E009958701EE24E394F12CD1E0C15020
:1022F0008091DD039091DE03CF3F91F1B0E2EB16C8
:10230000F104D8F00E94F8108091DD039091DE0373
:102310002091E103D0931603209315031092140328
:1023200010921303DC01ED91FC910190F081E02DFE
:1023300060E00995EE24E394F12C8091DD03909107
:10234000DE03F8016491DC01ED91FC910190F081D4
:10235000E02D0995BFEFEB1AFB0A0F5F1F4FC7CFA8
:10236000DF91CF911F910F91FF90EF900C94F81097
:10237000E091ED03F091EE0390818091F30380955D
:10238000892380838701C15008F438C0F801849103
:102390002091DB033091DC03232B29F00E942A0AD1
:1023A0000F5F1F4FF0CF28E030E040E8E091E903F5
:1023B000F091EA039091F103582F5423D9F0508102
:1023C000952B9083E091EB03F091EC039081509179
:1023D000F203952B9083E091EB03F091EC03508195
:1023E0009091F20390959523908346952150310961
:1023F000E9F6D6CF508190959523E3CFDF91CF9129
:102400001F910F91FF90EF9008951F93CF93DF934B
:10241000EC018D8D9E8D009721F1162F29A131E0C1
:102420003093160320931503109214031092130394
:10243000DC01ED91FC910190F081E02D60E00995C7
:102440008D8D9E8DDC01ED91FC910190F081E02D50
:10245000612F09958D8D9E8DDF91CF911F910C94E9
:10246000F810ADA5BEA59C918BA9809589238C936E
:102470008B8D9C8D892B31F0862FDF91CF911F9111
:102480000C942A0A28E030E080E8A9A5BAA599A909
:10249000462F4823C1F04C91942B9C93ABA5BCA52F
:1024A0009C914AA9942B9C93ABA5BCA54C919AA94D
:1024B000909594239C9386952150310931F7DF91B3
:1024C000CF911F9108954C9190959423E6CFDF9280
:1024D000EF92FF920F931F93CF93DF938091DD03D1
:1024E0009091DE03892B09F48AC06091F503709105
:1024F000F6038091F7039091F8030E94601065E065
:102500008DE89AE00E9450116091C403615080EC04
:1025100093E00E9405122091C6033091C703C901C0
:10252000079697FD079623E0959587952A95E1F7FD
:102530002091C4033091C503829F8001839F100DB9
:10254000929F100D1124C091DF03D091E003809180
:10255000DD039091DE030C0F1D1F009709F480C06E
:102560002091E10331E0309316032093150310927C
:10257000140310921303DC01ED91FC910190F081A2
:10258000E02D60E40995EE24E394F12CDD24D3944E
:102590008091DD039091DE030C171D0709F446C0FE
:1025A000B0E2EB16F104D8F00E94F8108091DD0340
:1025B0009091DE032091E103D0921603209315033E
:1025C0001092140310921303DC01ED91FC91019021
:1025D000F081E02D60E40995EE24E394F12C8091E4
:1025E000DD039091DE036991DC01ED91FC91019096
:1025F000F081E02D0995BFEFEB1AFB0AC9CF80915E
:10260000DB039091DC03892B31F08091FE039091E4
:10261000FF030E94310AE091EF03F091F0039081F3
:102620008091F40380958923808369CF0E94F810FC
:102630008091DD039091DE03892B09F452C06091F3
:10264000F9037091FA038091FB039091FC03DF91F1
:10265000CF911F910F91FF90EF90DF900C9460103D
:10266000E091ED03F091EE0380819091F303892BCB
:1026700080830C171D07E1F289912091DB033091D3
:10268000DC03232B19F00E942A0AF3CF28E030E064
:1026900040E8E091E903F091EA039091F103582FAB
:1026A0005423D9F05081952B9083E091EB03F09166
:1026B000EC0390815091F203952B9083E091EB0312
:1026C000F091EC0350819091F203909595239083C3
:1026D000469521503109E9F6CCCF5081909595234C
:1026E000E3CFE091EF03F091F00380819091F40348
:1026F000892B8083DF91CF911F910F91FF90EF90F5
:10270000DF900895CF93C82F8091DD039091DE0371
:10271000892B01F16091F5037091F6038091F70325
:102720009091F8030E9460106C2F80EC93E00E945F
:1027300005128091DD039091DE03892B11F16091E8
:10274000F9037091FA038091FB039091FC03CF9100
:102750000C9460108091DB039091DC03892B31F0A5
:102760008091FE039091FF030E94310AE091EF03F4
:10277000F091F00390818091F40380958923808308
:10278000D3CFE091EF03F091F00380819091F403B7
:10279000892B8083CF9108951F93CF93DF93EC0112
:1027A000162F8D8D9E8D892BC9F06DA97EA98FA9BD
:1027B00098AD0E94601066EA111167EACE010E948E
:1027C00005128D8D9E8D892BC9F069AD7AAD8BADCB
:1027D0009CADDF91CF911F910C9460108B8D9C8DDF
:1027E000892B21F08EAD9FAD0E94310AEFA5F8A98B
:1027F00090818CA9809589238083DDCFEFA5F8A9EE
:1028000080819CA9892B8083DF91CF911F910895AE
:1028100090E080E00895CF93DF93C82FD1EF81300F
:1028200039F0823019F0D1EFCFEF02C0D0E2C1E031
:1028300081E80E9482138C2F0E94821389ED0E94EE
:1028400082138D2FDF91CF910C9482132F923F92A0
:102850004F925F926F927F928F929F92AF92BF92B0
:10286000CF92DF92EF92FF920F931F93CF93DF935C
:10287000782E562E442E322E202ED1E0612C741448
:1028800008F042C0C52D872C912C54018FEFA81A57
:10289000B80AC31598F5CC2ED12CC51108C030E06C
:1028A00020E0A601B50180EC93E00E947A0930E0B7
:1028B00020E0A6014F5F5F4FB40180EC93E00E94DF
:1028C0007A09211012C0DD2361F086010E5F1F4FCF
:1028D000F12CE12C9501A601B50180EC93E00E945A
:1028E000A50D81E0D827CE5FD4CF30E020E0A6014F
:1028F000B50180EC93E00E947A09F5CF739473944C
:10290000D62D81E06826BBCFDF91CF911F910F912B
:10291000FF90EF90DF90CF90BF90AF909F908F90FF
:102920007F906F905F904F903F902F900895CF923F
:10293000DF92EF92FF920F931F93CF93DF93CDB768
:10294000DEB761970FB6F894DEBF0FBECDBF082F7C
:1029500087E193E00E942407181619060CF053C172
:1029600061E070E080E090E00E94510610E0E4E059
:10297000FE2EF3E0EF2E87E193E00E942407181665
:1029800019060CF076C087E193E0113108F467C0B6
:102990000E9402072091E0022223B1F01631A0F03C
:1029A0002981233489F42A81203571F4163171F498
:1029B00099278630910514F085E090E088589E4F65
:1029C000DC018C91809300011F5FD5CF1A3119F47F
:1029D00080934201F9CF103269F49927863091052E
:1029E00014F085E090E088589E4FFC018081809330
:1029F0000101EACF143219F480934301E5CF1A3272
:102A000089F4863008F7E0927101992786309105A4
:102A100014F085E090E088589E4FDC018C91809303
:102A20000201D2CF1E3239F420917101233061F6B8
:102A300080934401C9CF143309F0DAC0863020F600
:102A4000F092710199278630910514F085E090E0AD
:102A500088589E4FFC01808180930301B5CF0E946E
:102A60000207E1E0F0E0EC0FFD1FE10FF11D8083B4
:102A7000ABCF8981833409F072C0103108F469C08A
:102A80008A818D3031F58F8180936B01FE013896FC
:102A900030E020E090E080E0C12CD12C7601C3949E
:102AA000A191B701A601022E04C0440F551F661F55
:102AB000771F0A94D2F7AA2309F446C0842B952BDA
:102AC0002F5F3F4F2A30310559F79093E2028093F0
:102AD000E1028A81863009F458C08A81843009F085
:102AE0007BC08B818B3F49F48D818B3231F48E8199
:102AF000863019F48F8180936B011E3080F18D81B7
:102B00008A3269F58E81893051F58885845F80939A
:102B10004A018C85845F80934B01898590E0982FD2
:102B200088272A85820F911D909347018093460143
:102B30008D8590E0982F88272E85820F911D909388
:102B40004901809348010BC04095509584239523FB
:102B5000B7CF193008F0BDCF163008F0BECF011145
:102B600052C069E170E080E090E061960FB6F894A1
:102B7000DEBF0FBECDBFDF91CF911F910F91FF90B0
:102B8000EF90DF90CF900C9451068E81843009F045
:102B9000A4CFE2E4F1E0AE01495F5F4F6DE6E62EBF
:102BA00061E0F62E66E471E08191DA012D91AD01CC
:102BB00030E090E0281739070CF4C901D7018D9354
:102BC0007D016E177F0781F788CF853309F095CF98
:102BD00080910203826009C0823009F08ECF8F811C
:102BE000833399F78091020381608093020385CF3C
:102BF000183309F0E9CE20917101243009F0E4CEB8
:102C000080934501E1CE61960FB6F894DEBF0FBE0A
:102C1000CDBFDF91CF911F910F91FF90EF90DF908B
:102C2000CF9008958F92AF92CF92EF920F931F9310
:102C3000CF93DF93CDB7DEB72C970FB6F894DEBFF6
:102C40000FBECDBF182F1C861B8682E489838CEFB4
:102C5000860F8A8383E0861B8B8381E08C834D8380
:102C60002E830F83E886C986AA868B8670E0FE01D4
:102C7000E60FF71FA80CAC0CEA0C0E0D200F240F6A
:102C80002083AB01BE016F5F7F4F87E193E00E941D
:102C9000C60681E0111107C068E070E080E090E0B6
:102CA0000E94510680E00E9497142C960FB6F8946B
:102CB000DEBF0FBECDBFDF91CF911F910F91EF907F
:102CC000CF90AF908F9008958F92AF92CF92EF9266
:102CD0000F93812CA12CC12CE12C00E020E04AE2D2
:102CE00067E080E00E94121623E04AE267E080E09D
:102CF0000E94121624E04AE267E080E00E94121669
:102D000025E04AE267E080E00E94121626E04AE2EF
:102D100067E080E00E94121627E04AE267E080E068
:102D20000E94121629E04AE267E080E00E94121633
:102D3000EE24E39401E021E04BE269E080E00E94B0
:102D400012160F91EF90CF90AF908F9008958F92C1
:102D5000AF92CF92EF920F93082F6430B1F040F012
:102D60006530D9F00F91EF90CF90AF908F9008958C
:102D7000812CA12CCC24C394E82E062F24E04BE216
:102D80006AE081E00E941216EDCF812CA12CCC24A8
:102D9000C394EE24E39427E0F2CF812CA12CC12C24
:102DA000EE24E39426E04BE269E0EBCFFC010190D6
:102DB0000020E9F73197AF01481B590BBC0180ECAB
:102DC00093E00C94C6068F929F92AF92BF920F939E
:102DD0001F93CF93DF93CDB7DEB7A1970FB6F894CB
:102DE000DEBF0FBECDBF19A2423008F44AE08E010B
:102DF0000F5D1F4F842E912CB12CA12CA5019401A5
:102E00000E94CF2BE62FB901CA01EA30F4F4E05D4D
:102E1000D801EE938D01232B242B252B79F790E0FD
:102E200080E0109719F0CD010E94D616A1960FB63A
:102E3000F894DEBF0FBECDBFDF91CF911F910F91F0
:102E4000BF90AF909F908F900895E95CE1CF8F92F3
:102E50009F92AF92BF92CF92DF92EF92FF921F9319
:102E6000CF93DF936B017C01B42E20E030E0A90109
:102E70000E94EC29D0E0C0E087FF08C08DE20E94EC
:102E8000410DEC01F7FAF094F7F8F09410E060E0EF
:102E900070E080E09FE31B1541F020E030E040E26D
:102EA00051E40E94F1291F5FF6CFA70196010E940D
:102EB00080296B017C010E94632A4B015C014AE07E
:102EC0000E94E316C80FD91F1123B1F1C501B40147
:102ED0000E94922A9B01AC01C701B6010E947F2982
:102EE0006B017C018EE20E94410DC80FD91F115069
:102EF00018F120E030E040E251E4C701B6010E9441
:102F0000492B4B015C010E94632A6B01F12CE12CDF
:102F10004AE0C701B6010E94E316C80FD91FC701D6
:102F2000B6010E94922A9B01AC01C501B4010E9426
:102F30007F296B017C01DBCFCE01DF91CF911F9107
:102F4000FF90EF90DF90CF90BF90AF909F908F90C9
:102F50000895009711F00C94D61690E080E0089543
:102F6000EF92FF920F931F93CF93DF93F82EE62EED
:102F7000CA016F113DC01092D1031092D00321E01D
:102F800030E03093D3032093D2030091CC0310910F
:102F9000CD030E94A917C091CC03D091CD03DD27AA
:102FA000EF1014C0B80177279E01261B370B2F5F47
:102FB0003F4F61507109EE24E394F12C0AE010E0D8
:102FC0004AE250E080EC93E00E94460D2796D093B1
:102FD000CD03C093CC038BE290E09093CF0380931A
:102FE000CE03DF91CF911F910F91FF90EF90089545
:102FF00021E030E03093D1032093D0031092D3032B
:103000001092D203C2CFCF93C82F8BEE91E0CA307B
:1030100010F482E192E00E94A9176C2F70E090E01A
:1030200080E04AE0CF910C94E316CF92DF92EF92CA
:10303000FF920F931F93CF93DF93D82E862FF42EFA
:10304000C22E9091710113E0933008F415E0CD2D5C
:10305000D0E0D093CD03C093CC031092CF03109255
:10306000CE0391E09093D4039093D5030E94410D39
:10307000CE0101969093CD038093CC038BE090E03A
:103080009093CF038093CE031093D4031093D50372
:103090008F2D0C3309F086950E9403180C33E1F054
:1030A000F0FE1AC0212F30E087E0189FA001112404
:1030B000455F5F4F421B530BBE018CE0189F600DB4
:1030C000711D112461507109EE24E394F12C8901E2
:1030D00080EC93E00E943A0ECC2051F04091CC035A
:1030E0004D5F00E02EE26BE081E08D0D0E94261422
:1030F000DF91CF911F910F91FF90EF90DF90CF90D4
:1031000008952F923F924F925F926F927F928F928B
:103110009F92AF92BF92CF92DF92EF92FF920F9366
:103120001F93CF93DF93CDB7DEB7E4970FB6F89434
:10313000DEBF0FBECDBFD82E6BAB4CAB81E0809312
:10314000D4038093D50381E090E09093D3038093E0
:10315000D2039093D1038093D003643009F460C20A
:10316000653009F4ADC2611142C2423008F0D7C1E6
:10317000609171012BA9261708F039C270E084E232
:1031800090E00E94BB2B1B01822F90E0FC01EE5BC4
:10319000FE4F808030914D013CA3FC01E359FE4F6E
:1031A000908080509F4FDC017C90CB010396289F3C
:1031B000B02D1124BD8BCB2ED12C5B01E7E0AE1AD4
:1031C000B108B7FE04C05B01F6E0AF1AB108B594D0
:1031D000A794AC0CBD1C22E730E03093CD032093C4
:1031E000CC03B092CF03A092CE033CE3892D83128F
:1031F00086950E9403184CE3841691F090FE10C04F
:10320000EE24E394F12C02E010E022E030E0A5018E
:103210004B5F5F4F6EE770E080EC93E00E943A0EE8
:103220001092CD031092CC03B092CF03A092CE03A4
:10323000872D0E94410D682D70E07E836D83892D5E
:1032400090E09EA38DA3B4E69B9ED0011124BF8B7A
:10325000AE8BECA9E11126C0CD010E94BB2B9B01D6
:10326000EE24E394F12C8101A6016AE070E080EC89
:1032700093E00E943A0E9CA1ABA99A1779F02D8990
:10328000220D8E899F896D817E810E94BB2B4BE030
:10329000460F0CA96D898AE00E942614BBA9BF5F66
:1032A000BBAB66CFA1014C0D5D1D7A01F1E0EF1AB9
:1032B000F1089601215031093A8329832E153F05E3
:1032C0000CF445C2E216F3060CF050C2FA86E98609
:1032D00038872F836DE670E07C876B878AE090E00B
:1032E0009C838B838B859C85AB81BC818A1B9B0BCC
:1032F0009701E985FA852E1B3F0B6DE670E06A1B8E
:103300007B0B79A368A3AF81B885AE1BBF0BBE87CB
:10331000AD87EDE6F0E06B857C85E61BF70BFBA344
:10332000EAA3AF81B885AE19BF09B98FA88FEF8125
:10333000F885EE16FF0609F477C0BA0162507109EC
:103340007A8B698BC984DA84412C512C3201812C0F
:10335000912C540148A159A1052E000C660B770B46
:103360004C8F5D8F6E8F7F8FA901330F660B770BAC
:103370004FA358A769A77AA72D853E85032E000C79
:10338000440B550B2BA73CA74DA75EA7AC01990F8B
:10339000660B770B4FA758AB69AB7AAB69897A8913
:1033A0006C157D050CF443C0C501B4012FA138A5EF
:1033B00049A55AA50E94F12B0B811C81020F131FF6
:1033C000C301B2012BA53CA54DA55EA50E94F12B22
:1033D0006B817C81620F731F8FA598A9A9A9BAA9D7
:1033E000880E991EAA1EBB1E2C8D3D8D4E8D5F8DA5
:1033F000420E531E641E751E601771072CF0962F27
:10340000872FB801092F182F9801261B370B2F5F24
:103410003F4F01E010E0A60180EC93E00E94010F15
:103420003FEFC31AD30ABACFFA8AE98A8BCF4AA1EF
:103430005BA1052E000C660B770B498B5A8B6B8BAF
:103440007C8B96012E193F09AAA1BBA10E94102CCA
:103450004B015C01960169857A85261B370BA8A173
:10346000B9A10E94102C2B013C01888D998D092E49
:10347000000CAA0BBB0B888F998FAA8FBB8F2D8551
:103480003E85032E000C440B550B2D873E874F873E
:10349000588B4F8158854C155D050CF472C1C501E0
:1034A000B401288D398D4A8D5B8D0E94F12B0B85DF
:1034B0001C85020F131FC301B2012D853E854F8568
:1034C00058890E94F12B6B817C81620F731F89895F
:1034D0009A89AB89BC89880E991EAA1EBB1E2C8DA9
:1034E0003D8D4E8D5F8D420E531E641E751E6017FE
:1034F00071072CF0962F872FB801092F182F9801EC
:10350000261B370B2F5F3F4F01E010E0A60180EC38
:1035100093E00E94010F3FEFC31AD30ABACF809104
:103520007101843070F5E0E8EE2EF12C60917101AC
:10353000EBA9E61708F05BC0F0E08F010E5B1E4FB1
:1035400021E030914D014BA9341301C020E0CF019F
:1035500083599E4F6C01E050FF4F70E0C7010E94FD
:10356000BB2B862FD8010C91D6014C916081BBA951
:10357000B89F802D11240E941518EBA9EF5FEBABCB
:10358000D5CF52E4A52E51E0B52E6DE6C62E61E0F2
:10359000D62E70E0E72E71E0F72E1982D5010D913D
:1035A0005D01F60141916F01D7016D917D0121E02F
:1035B00080914D01BBA98B1301C020E089810E943D
:1035C0001518EBA9EF5FEBABF981F65DF983E330FA
:1035D00029F780914D01833051F40091450120E09D
:1035E000409170016091030184E50E941518E496F2
:1035F0000FB6F894DEBF0FBECDBFDF91CF911F9104
:103600000F91FF90EF90DF90CF90BF90AF909F9081
:103610008F907F906F905F904F903F902F90089584
:1036200084E190E09093CD038093CC0331E3A32E0B
:10363000B12CB092CF03A092CE0382EE91E00E9413
:10364000A917F12CE12C00E110E02AE130E040E381
:1036500050E061E270E080EC93E00E943A0E83E279
:1036600090E09093CD038093CC03B092CF03A092CF
:10367000CE0382E08093D4038093D5030D2D10E018
:10368000000F111F01581E4FD8018C910E94410D4F
:10369000F80181810E94410DFCA9FF2309F4A7CF05
:1036A00022E0E22EF12C00E110E02AE130E040E3DC
:1036B00050E061E270E080EC93E00E943A0E97CF18
:1036C00082E490E09093CD038093CC0391E3A92E04
:1036D000B12CB092CF03A092CE0385EE91E00E9470
:1036E000A917F12CE12C00E110E02EE030E040E3DE
:1036F00050E065E570E080EC93E00E943A0E87E5CB
:1037000090E09093CD038093CC03B092CF03A0922E
:10371000CE0382E08093D4038093D5036D2D70E0B7
:103720006F5F7F4F072E000C880B990B40E10E94C2
:10373000E3162CA9222309F45ACF82E0E82EF12CBB
:103740002EE030E040E350E065E570E0B4CF698101
:103750007A817A876987F886EF828AE090E09C8791
:103760008B87ADE6B0E0BC83AB83BCCD01E010E05D
:1037700024E630E0A7016AE070E080EC93E00E946C
:10378000010F61014FEFC41AD40A8E899F896D81A0
:103790007E810E94BB2B5B012D813E816DA17EA1AC
:1037A000261B370B74E6729FC001739F900D112486
:1037B0006D817E810E94BB2B9B012F5F3F4FB50126
:1037C000665F7F4FF12CE12C860149815A8180ECA4
:1037D00093E00E943A0EF2E09F2E692D70E06A1588
:1037E0007B050CF048CD665F7F4FF12CE12C860104
:1037F00022E030E049815A8180EC93E00E943A0E49
:1038000084E0980EEACFCF93DF93682F70E090E0CA
:1038100080E04AE00E94E316EC0189EE91E00E940C
:10382000D6168C0F9D1FDF91CF910895CF93DF9314
:103830000E94D616EC0189EE91E00E94D6168C0FFC
:103840009D1FDF91CF9108952091C6033091C7034A
:10385000C901079697FD079623E0959587952A95C8
:10386000E1F72091C4033091C503829FA001839F9B
:10387000500D929F500D112470E060E08091DF03A5
:103880009091E0030C94722DEF92FF920F931F938F
:103890000E94241C4091F80260E080916D010E941A
:1038A000811841E08091EA02813009F040E064E053
:1038B000809103030E94811841E08091EA028230E6
:1038C00009F040E065E080916B010E948118F12CC5
:1038D000E12C0AE010E02EE130E048E350E062E63F
:1038E00070E080EC93E00E943A0E1F910F91FF90E0
:1038F000EF900C9467120E946D2D1F93CF93DF936E
:10390000EC01162F0E946929181739F0612FCE019A
:10391000DF91CF911F910C947129DF91CF911F916D
:1039200008950C9469291F920F920FB60F921124DB
:103930004F935F936F937F938F939F9340910F0368
:1039400050911003609111037091120380910E0346
:1039500090910D039A3119F510920D0390910D037A
:10396000953008F1845C8D3700F18D574E5F5F4FC5
:103970006F4F7F4F80930E0340930F0350931003BC
:1039800060931103709312039F918F917F916F91B8
:103990005F914F910F900FBE0F901F9018959F5FF2
:1039A00090930D03DBCF835CDECF4F5F5F4F6F4F94
:1039B0007F4FE0CF1F920F920FB60F9211242F93DB
:1039C0003F934F935F936F937F938F939F93AF93A7
:1039D000BF93EF93FF93E0910601F09107010995E2
:1039E000FF91EF91BF91AF919F918F917F916F91D7
:1039F0005F914F913F912F910F900FBE0F901F90AD
:103A000018951F920F920FB60F9211242F933F9388
:103A10004F935F936F937F938F939F93AF93BF93D6
:103A2000EF93FF93E0910401F09105010995FF9157
:103A3000EF91BF91AF919F918F917F916F915F9126
:103A40004F913F912F910F900FBE0F901F9018959F
:103A50001F920F920FB60F9211242F933F934F9303
:103A60005F936F937F938F939F93AF93BF93EF93E6
:103A7000FF9387E193E00E944407FF91EF91BF918C
:103A8000AF919F918F917F916F915F914F913F91F6
:103A90002F910F900FBE0F901F9018951F920F92AD
:103AA0000FB60F9211242F938F939F93EF93FF9351
:103AB000E0912703F09128038081E0912D03F0919C
:103AC0002E0382FD1BC09081809130038F5F8F7326
:103AD00020913103821741F0E0913003F0E0E95E7C
:103AE000FC4F958F80933003FF91EF919F918F91C1
:103AF0002F910F900FBE0F901F9018958081F4CFDB
:103B00001F920F920FB60F9211242F933F934F9352
:103B10005F936F937F938F939F93AF93BF93EF9335
:103B2000FF938091B900887F803609F44AC0F0F590
:103B3000883209F4A7C018F5803109F49BC0B8F4A5
:103B4000882309F405C1883009F494C0FF91EF91EE
:103B5000BF91AF919F918F917F916F915F914F91A5
:103B60003F912F910F900FBE0F901F9018958831A5
:103B700009F488C0803251F78093D00214C0803499
:103B800009F4A5C040F48033B9F38833F9F6809383
:103B9000D00285ECBCC0803509F489C0883509F4B1
:103BA0009EC0883499F60E942F10D0CF883909F42E
:103BB00094C038F5883729F050F4883611F08037F2
:103BC00029F683E08093DD021092CF0257C0883837
:103BD00009F483C0803919F0803809F0B7CF80919B
:103BE000CF02803208F079C0E091CF0281E08E0FE1
:103BF0008093CF028091BB00F0E0E155FD4F8083C0
:103C00003DC0803B39F0E0F4803A09F485C0883A41
:103C100009F09CCF84E08093DD021092AE021092F6
:103C2000AD02E091D902F091DA0209958091AD02DE
:103C300081110FC081E08093AD0210928D0209C006
:103C4000803C09F4A6CF883C09F4A3CF883B09F057
:103C50007DCFE091AE0281E08E0F8093AE02F0E066
:103C6000E357FD4F80818093BB009091AE0280911D
:103C7000AD0231C08091D5028093BB0085EC80936A
:103C8000BC0064CF9091D4028091D3029817B8F50C
:103C90008091D1029091D202E091D40221E02E0FC6
:103CA0002093D402E80FF92FF11D8081E5CF2091F8
:103CB000D1023091D202E091D40281E08E0F809344
:103CC000D4028091BB00E20FF32FF11D808390910D
:103CD000D4028091D302981788F285E8D0CF209142
:103CE000D1023091D202E091D40281E08E0F809314
:103CF000D4028091BB00E20FF32FF11D80838091ED
:103D0000DC02811150CF81E08093DB0284EA809352
:103D1000BC001092DD021ACF85EC8093BC0010929B
:103D2000DD028091CF02803230F4E091CF02F0E0EA
:103D3000E155FD4F10826091CF0270E0E091D70213
:103D4000F091D8028FEA92E009951092CF02FECE50
:103D50001092D00228CFE7E1F3E01382128248EEFE
:103D600053E060E070E0448355836683778386E99F
:103D700091E09183808385EC90E09587848784EC43
:103D800090E09787868780EC90E0918B808B81EC28
:103D900090E0938B828B82EC90E0958B848B86EC09
:103DA00090E0978B868B118E128E138E148EA4EB5F
:103DB000B3E013961C921E92129714964D935D9346
:103DC0006D937C93179788EA91E011969C938E935C
:103DD000E0ECF3E01382128220E830E035832483A4
:103DE00080E490E09783868331872087938782875A
:103DF000168A158614861786168681E0858B848B35
:103E00002FEF3FEF338B228B318B208B878B108EE4
:103E1000128E118E8AEB91E091838083148E138E23
:103E2000B68FA58F10A2178E8FEF84A385A386A3CC
:103E300087A380A780E89AE1A6E0B0E085AB96ABC7
:103E4000A7ABB0AF80EA96E8A1E0B0E081AF92AF57
:103E5000A3AFB4AF80E586AF17AE0895CF93DF93DD
:103E600000D01F92CDB7DEB7789484B5836084BD4F
:103E700085B5836085BD80916E00816080936E0002
:103E800082E0809381008091810081608093810035
:103E9000809180008160809380008091B100846077
:103EA0008093B1008091B00081608093B00086E87B
:103EB00080937A001092C10062E082E00E94CD05FA
:103EC00062E083E00E94CD0562E085E00E94CD05BE
:103ED00083E896E090930501809304018091690046
:103EE000836080936900E89A83EA96E090930701E3
:103EF00080930601809169008C6080936900E99A43
:103F00008AE090E00E94911C91E0811101C090E054
:103F10009093E00286E190E00E94911C80936901F9
:103F200084E090E00E94911C80934D01C09071014B
:103F3000CA8212E4A12E11E0B12E0DE6C02E01E0DE
:103F4000D02E85E0E82E83E0F82E10E000E02A81F4
:103F50000217C0F4D501ED915D01E983C8010E940B
:103F6000911C90E0F9812F2F30E0821793070CF419
:103F70009C01D6012D936D01F70121937F010F5F05
:103F80001F4FE5CF85E090E00E94911C90E08430C7
:103F9000910514F083E090E08093680186E090E062
:103FA0000E94911C8093F802833010F01092F80266
:103FB00088E090E00E94911C91E0811101C090E0A6
:103FC0009093E30289E090E00E94911C80930303A8
:103FD0008091DF039091E003892B11F10E94241C52
:103FE0002091C6033091C7038091C4039091C5030B
:103FF000213231050CF0E2C0B9016052710977FF3E
:1040000002C06F5F7F4F759567958357910997FD44
:10401000019600E210E023E730E04AE855E0E1C015
:104020002091C6033091C703C901079697FD0796F3
:10403000B3E095958795BA95E1F72091C403309147
:10404000C5036C01C29EC001C39E900DD29E900D0F
:1040500011240E94482C9093E0038093DF03892B66
:1040600009F0BCCF809168010E940B140E94241CAF
:104070000E946712E0912703F091280382E0808379
:10408000E0912303F09124031082E0912503F09145
:10409000260385E0808310922F03E0912B03F0919B
:1040A0002C0386E08083E0912903F0912A0380812C
:1040B00088698083E0912903F0912A0380818F7DB4
:1040C0008083198201E010E068E077E080E090E012
:1040D0000E9451060E94641621E02093D40320938D
:1040E000D5031093D3030093D2031093D10300930D
:1040F000D0030E94241C1092CD031092CC03109286
:10410000CF031092CE0380916B018E3009F054C220
:104110008EEE91E00E94A91789810E94031C0E94E3
:10412000671239813F5F39833A3071F668EE73E088
:1041300080E090E00E9451060E94441C1982809108
:104140007101C980C81608F441C266246394712CB9
:104150002FB7F89480910F0390911003A091110351
:10416000B09112032FBF8093090390930A03A09389
:104170000B03B0930C03D12C80917101D81608F079
:104180003AC20D2D10E0980123593E4F7901D90113
:104190008C910B5F1C4FF8019081891769F0909109
:1041A00004039160909304036D2D90E00E94A71684
:1041B000D7018C91F8018083D394DECFB90160548C
:1041C000710977FF02C06F5F7F4F759567958255C4
:1041D000910997FD019600E410E022E530E04AE6FF
:1041E00057E0959587950E94200F82E08093E20327
:1041F0008091DD039091DE03892B09F4A7C08CE345
:104200008093E1031092DF021092DE0210921403F9
:10421000109213031092DD0281E08093DC02109271
:10422000DB0261E082E10E949F0561E083E10E9480
:104230009F058091B9008E7F8093B9008091B9006D
:104240008D7F8093B9008FE28093B80085E48093DE
:10425000BC0083EC96E09093DA028093D90284EC60
:1042600096E09093D8028093D7028091E80387FD6F
:104270001EC061E00E94CD0561E08091E8030E94CC
:104280009F0561E070E080E090E00E94510660E0F0
:104290008091E8030E949F056AE070E080E090E072
:1042A0000E94510661E08091E8030E949F05809181
:1042B000DD039091DE03892B09F409C16091F503B8
:1042C0007091F6038091F7039091F8030E946010BB
:1042D00064E086E895E00E9450116091C603615049
:1042E00080EC93E00E94051264E082E895E00E9471
:1042F00050118091E20360E1813009F064E180ECCB
:1043000093E00E94051264E08EE795E00E94501150
:104310008FE88093FD038091C4039091C50380389A
:10432000910509F0EDC08091C6039091C7038034D8
:10433000910509F035C18091E203813009F0DEC0BA
:104340008FE98093FD0302E10983EEC061E0809173
:10435000E6030E94CD0561E08091E7030E94CD0550
:104360008091E603082E000C990BFC01E85BF54FE9
:10437000E491F0E0EE0FFF1FE25CF54F25913491E0
:104380003093EE032093ED03FC01E15AF54FE491E5
:10439000E093F3038091E703082E000C990BFC01D6
:1043A000E85BF54FE491F0E0EE0FFF1FE25CF54FA4
:1043B000A591B491B093F003A093EF03FC01E15AEF
:1043C000F54FE491E093F4038C91E82BEC9380910A
:1043D000DB039091DC03892B09F436C0DFB6D98268
:1043E000F8948091D602811127C0E2E5FAE0849129
:1043F000E9E6FAE09491E82FF0E0EE0FFF1FEC5CA5
:10440000F54FA591B491EC91E92321F461E08AE0A4
:104410000E949F0561E08AE00E94CD058CB5806115
:104420008CBD8CB580648CBD61E08DE00E94CD05B3
:1044300061E08BE00E94CD058091D6028F5F809372
:10444000D602E980EFBE11CF61E08091E4030E94C3
:10445000CD0561E08091E5030E94CD058091E403E4
:10446000082E000C990BFC01E85BF54FE491F0E09D
:10447000EE0FFF1FE25CF54F259134913093EA0374
:104480002093E903FC01E15AF54FE491E093F10335
:104490008091E503082E000C990BFC01E85BF54FB9
:1044A000E491F0E0EE0FFF1FE25CF54FA591B491AF
:1044B000B093EC03A093EB03FC01E15AF54FE491B8
:1044C000E093F2038C91E095E823EC93CECE8091BB
:1044D000DB039091DC03892B31F08091FE039091F6
:1044E000FF030E94310AE091EF03F091F003908105
:1044F0008091F403809589238083EACE8FEC21CFCD
:104500008036910579F48091C6039091C703409756
:1045100009F046C08091E203813009F03FC080E19C
:104520008093FD0312E019836AED80EC93E00E9412
:104530000512698180EC93E00E94051261E880EC2D
:1045400093E00E9405126091FD0380EC93E00E94CD
:10455000051269ED80EC93E00E9405128091E20360
:1045600062E2813009F061EF80EC93E00E94051275
:1045700066E088E795E00E9450118091DD039091FC
:10458000DE03892B79F06091F9037091FA03809131
:10459000FB039091FC030E94601064CD8FEAC0CFB2
:1045A00002E0D2CEE091EF03F091F0038081909190
:1045B000F403892B808356CD82E092E00E94A917F4
:1045C00089810E94031C0E946712B0CDD9802D2DD5
:1045D00030E0F901E359FE4F80812B5F3C4FD90158
:1045E0009C91891721F06D2D90E00E94A7160981FA
:1045F0000F5F0983A4CD8091030390916C0189170B
:1046000069F09091040391609093040364E090E05A
:104610000E94A7168091030380936C0180916B0127
:1046200090916A018917A9F0909104039160909389
:1046300004038E3051F065E090E00E94A71680914F
:10464000030364E090E00E94A71680916B018093C1
:104650006A01809102038823B1F080FF0DC0812C94
:10466000A12CC0906901EE24E39402E020E043E332
:104670006AE080E00E9412168091020381FD0E9490
:1046800064161092020380916801833039F580919D
:10469000000390910103019690930103809300031E
:1046A0000196E1F481E480937C0080917A0080643B
:1046B00080937A0080917A0086FDFCCF809178000B
:1046C00090917900843001E090070CF4E1C08736C6
:1046D00093400CF4DFC082E00E940B148091FF0233
:1046E000882321F18091090390910A03A0910B0383
:1046F000B0910C034091FB025091FC026091FD02CD
:104700007091FE02841B950BA60BB70B89359B415C
:10471000A105B10558F0809104031092FF02109298
:10472000FA021092F90281608093040380910403DD
:1047300080FF5CC11091FF02123009F4ADC014304B
:1047400009F4BFC2113009F031C3D090F902809151
:10475000FA02882309F4CDC2ED2DF0E0EE0FFF1F21
:10476000EC57FE4F808191818E55914009F044C0F5
:10477000D09068011093D4031093D503F12CE12C51
:104780000AE010E020E830E04AE250E070E060E04B
:1047900080EC93E00E943A0E42E050E05093CD034B
:1047A0004093CC038BE290E09093CF038093CE03B1
:1047B00047E152E06D2D80E00E94B0174CE252E0DC
:1047C0006D2D81E00E94B01744E152E06D2D82E032
:1047D0000E94B01740E352E06D2D83E00E94B017B5
:1047E00081E090E09093D3038093D2039093D10320
:1047F0008093D0030E946712E091F902F0E0EE0F7F
:10480000FF1FEC57FE4F808191818155914009F047
:10481000E8C0D090F80281E08093D4038093D50360
:10482000F12CE12C0AE010E020E830E04AE250E010
:1048300070E060E080EC93E00E943A0EE2E0F0E08D
:10484000F093CD03E093CC038BE290E09093CF0301
:104850008093CE0345E352E06D2D80E00E94B017B7
:104860004AE352E06D2D81E00E94B0174FE352E021
:104870006D2D82E00E94B017CC24C394D12CD0922D
:10488000D303C092D203D092D103C092D003A7C069
:1048900080E022CF81E020CF0E94241C1092CD0323
:1048A0001092CC031092CF031092CE0381E080933C
:1048B000D4038093D5038CE291E00E94161C6AE435
:1048C000A62E61E0B62E76E4872E71E0972E19822F
:1048D00011E01093D4031093D503C980C11074C1A3
:1048E00082E192E00E94A9171092CD031092CC03AE
:1048F0005AE0E52EF12CF092CF03E092CE0384E152
:1049000092E00E94A91782E192E00E94A9178AE131
:1049100092E00E94A91782E192E00E94A91782E129
:1049200092E00E94A91782E192E00E94A9178DE10E
:1049300092E00E94161C12E01093D4031093D5034A
:104940000981013009F04DC102E010E01B830A83A8
:1049500010E000E020914E018A819B81800F911F21
:104960002817190609F043C11092D1031092D00301
:104970007092D3036092D2030115110509F440C16E
:10498000D401CD90DC900D2C000CEE08FF084AE01D
:10499000C701B601F7FE0BC08DE20E94410D6627EC
:1049A0007727CB016C197D098E099F094AE00E9487
:1049B000E3167092D1036092D0031092D303109249
:1049C000D2030130110509F00FC1FFEFAF1ABF0A82
:1049D00002E0800E911C1981113009F0F2C00E9492
:1049E0006712809104038E7F80930403EBE7FAE063
:1049F0008491E4E6FAE01491EDE4FAE004910023F6
:104A000079F081110E947605E02FF0E0EE0FFF1F94
:104A1000E65DF54FA591B491EC911E2381E009F478
:104A200080E08093500190914F0140910903509193
:104A30000A0360910B0370910C03891759F08917D1
:104A400008F0B7C14093F4025093F5026093F60268
:104A50007093F7028091EF02823008F007C3882339
:104A600009F4E2C18091F0029091F102A091F2026A
:104A7000B091F3027A018B01E81AF90A0A0B1B0BB9
:104A8000D801C7018B3F9105A105B10508F4CCC140
:104A90008091EB029091EC02A091ED02B091EE02B8
:104AA0008A3F9105A105B10508F0CFC28091FF02B0
:104AB000823009F4AAC1843009F467C2813009F058
:104AC000A5C28091FA0281111092FF02E091F902D1
:104AD000F0E0EE0FFF1FEC57FE4F208131812E5585
:104AE000314071F4882331F06091680185E090E0F5
:104AF0000E947D1C8091FA0291E089278093FA023E
:104B0000E091F902F0E0EE0FFF1FEC57FE4F8081BD
:104B100091818155914081F48091FA02882331F08E
:104B20006091F80286E090E00E947D1C8091FA027C
:104B300091E089278093FA02E091F902F0E0EE0F0C
:104B4000FF1FEC57FE4F808191818653914061F4A5
:104B50006091E30281E068276093E30288E090E0DF
:104B60000E947D1C1092FF02E091F902F0E0EE0F2E
:104B7000FF1FEC57FE4F8081918131E08C3293070B
:104B800009F00CC282E08093FF02809104038160EF
:104B900080930403E091F902F0E0EE0FFF1FEC5761
:104BA000FE4F8081918151E08631950709F007C25F
:104BB00084E08093FF02809104038160809304036A
:104BC0002CC101E0098384CE1092CD031092CC0356
:104BD00004E210E01093CF030093CE0387E192E04C
:104BE00090CE1B821A82B4CE01E010E0B3CE709258
:104BF000D1036092D0031092D3031092D203BCCEA3
:104C0000F50160816C50770B072E000C880B990B17
:104C10000E94942A20E030E040E05FE30E94492BAC
:104C20006B017C01AC019B010E94B62B882389F0AB
:104C300080E292E00E94D6167092D1036092D00377
:104C40001092D3031092D20382E192E00E94A9173E
:104C5000B8CE16012701E89457F82FEF3FEF4FE742
:104C60005FE7C201B1010E94B62B81110DC02FEF89
:104C70003FEF4FE75FE7C201B1010E94EC29181630
:104C80001CF484E292E0D6CF2FEF3FEF4FE75FE4D2
:104C9000C701B6010E94442B18161CF488E292E06A
:104CA000C9CF2FEF3FEF4FE75FECC701B6010E947E
:104CB000EC2987FDF3CF41E0C701B6010E94271719
:104CC000BBCF0E94241C1092CD031092CC031092F3
:104CD000CF031092CE0381E08093D4038093D50359
:104CE00086E191E00E94161C809169010E94031CDC
:104CF00076CE0E94241C1093D4031093D5031092F7
:104D0000CD031092CC031092CF031092CE030D2D41
:104D10000C7FC02E10E0000F111F0C571E4F95E0A6
:104D2000B92EBC0CCB1469F126E02C1550F18CEE99
:104D300091E0DC1411F082E192E00E94A91782E177
:104D400092E00E94A917D801ED90FD908D01C70156
:104D50000E94A917BFE1EB16B1E0FB0661F482E106
:104D600092E00E94A9176091E00270E090E080E07C
:104D70004AE00E94E31689EE91E00E94D616C394A1
:104D8000D1CFE5E6F0E0F093CD03E093CC03B9E3B7
:104D9000CB2ED12CD092CF03C092CE0342E066E658
:104DA00076E684E092E40E94271719CE0E94441C04
:104DB00018CE8091EF024093F0025093F10260937D
:104DC000F2027093F3020091F4021091F502209127
:104DD000F6023091F7026A017B01C01AD10AE20A99
:104DE000F30A970186010F3111052105310508F4F9
:104DF00031CE8F5F8093EF020093EB021093EC02B1
:104E00002093ED023093EE0225CE80914E018F5F0C
:104E1000843008F0B7C080934E0180910403816014
:104E2000809304031092EF028091500180934F0110
:104E300081E00E9497144091090350910A03609108
:104E40000B0370910C038091E5029091E602A09112
:104E5000E702B091E8026A017B01C81AD90AEA0A9E
:104E6000FB0AD701C60189389341A105B10520F499
:104E70008091EA02833010F01092EA029091EA02E7
:104E80008091E402891789F0809104038160809306
:104E9000040380916B01923021F0913021F48091D4
:104EA00003038093E9029093E40280914C018038DF
:104EB00009F414C100914C01403A1FE0510761050B
:104EC000710508F4E1C00058110B8091E3028823BA
:104ED00019F011950195110980E880934C014093D8
:104EE000FB025093FC026093FD027093FE028091DE
:104EF000FF02823009F4CBC0843009F45BC18130F9
:104F000009F06AC18091F90290E02091FA0222230F
:104F100009F456C1880F991FFC01EC57FE4F8081A0
:104F200091818E55914099F480916801800F912F65
:104F3000911D8430910514F083E090E097FD80E0AE
:104F400080936801833009F4C4C00E940B14E0917F
:104F5000F902F0E0EE0FFF1FEC57FE4F80819181C8
:104F60008155914009F0B5C08091F802080F111DDC
:104F70000330110514F002E010E017FD00E000938B
:104F8000F802A7C010924E0148CF6091690186E1F6
:104F900090E00E947D1C1092FF023FCF8F51914004
:104FA00009F0F8CD6091E00281E068276093E002AB
:104FB0008AE090E00E947D1C1092FF02EBCD8850A9
:104FC000914009F02ACF60914D0184E090E00E9469
:104FD0007D1C60916D0190E080E00E947D1C6091DD
:104FE0006E0181E090E00E947D1C60916F0182E083
:104FF00090E00E947D1C6091700183E090E00E942F
:105000007D1C6091030389E090E0C3CF8091EA02A8
:10501000823039F48091E90280936B011092EA02A8
:10502000FCCE813029F48091E90280930303F6CF0E
:1050300080914D018F5F80934D019091710189178F
:1050400008F4EBCE10924D01E8CE81E08093FF0290
:10505000809104038160809304034093FB0250938A
:10506000FC026093FD027093FE02DCCE8091EA02A6
:105070008F5F8093EA024093E5025093E6026093CB
:10508000E7027093E802CECE10E000E01ECF8091E0
:105090004E01811133C080914A01080F111D093161
:1050A000110514F008E110E017FD00E000934A013B
:1050B000A0904601C0904701E0904A0154EFE50EF0
:1050C0008824839400E029E04BE26CE081E00E94B8
:1050D00012168091040381608093040380E090E0C5
:1050E000892B11F40C94A8200E943007882311F416
:1050F0000C94A8200E9400000C94A8208130E1F4B8
:105100008AE0809F9001819F300D1124809146019B
:1051100090914701820F931F893E23E0920714F07C
:1051200088EE93E08A30910514F48AE090E0909341
:10513000470180934601BCCF8230C9F480914B0176
:10514000080F111D0931110514F008E110E017FDD9
:1051500000E000934B01A0904801C0904901E0900D
:105160004B0184EFE80E8824839401E0ACCF8330B8
:10517000E9F484E6809F9001819F300D1124809195
:10518000480190914901820F931F813137E29307C3
:1051900014F080E197E2883E43E0940714F488EE2F
:1051A00093E09093490180934801D5CF823008F471
:1051B0007FCFD1CF80916901080F0093690189CF1A
:1051C000080F191F0730110514F006E010E017FD55
:1051D00000E00093F9027DCF992309F455C0409374
:1051E000E5025093E6026093E7027093E80210161E
:1051F0001106BCF401E010E0923099F56091E902EB
:105200002091E1023091E2026A3070F06093E9028D
:1052100041E065E08091E9020E9481180E946712D6
:105220005DCF0FEF1FEFE8CFC801860F911D8A30C9
:10523000910514F089E090E097FD80E0682FA901C6
:10524000082E02C0559547950A94E2F740FF03C027
:105250008093E902DDCF81508830B0F280916B01FC
:10526000F7CF913089F48091E902800F912F911D41
:105270001816190614F481E090E097FD80E0809301
:10528000E90241E064E0C8CF20914D0130E0F9012E
:10529000E359FE4F80812E5B3E4FD9012C9130E0C7
:1052A000080F111D201731070CF4890117FD00E0CC
:1052B000008314CF8AEB91E09093C1038093C003E5
:1052C0008091DF039091E003009711F00C94E42C9F
:1052D0000895F999FECF92BD81BDF89A992780B5BE
:1052E0000895262FF999FECF1FBA92BD81BD20BD2A
:1052F0000FB6F894FA9AF99A0FBE0196089550588D
:10530000BB27AA270E9497290C940A2B0E94FC2AEB
:1053100038F00E94032B20F039F49F3F19F426F453
:105320000C94F92A0EF4E095E7FB0C94F32AE92F8C
:105330000E941B2B58F3BA1762077307840795075F
:1053400020F079F4A6F50C943D2B0EF4E0950B2E8D
:10535000BA2FA02D0B01B90190010C01CA01A001C7
:105360001124FF27591B99F0593F50F4503E68F122
:105370001A16F040A22F232F342F4427585FF3CF63
:10538000469537952795A795F0405395C9F77EF434
:105390001F16BA0B620B730B840BBAF09150A1F07D
:1053A000FF0FBB1F661F771F881FC2F70EC0BA0F03
:1053B000621F731F841F48F4879577956795B7958B
:1053C000F7959E3F08F0B0CF9395880F08F0992786
:1053D000EE0F9795879508950E94CF2A08F481E0F3
:1053E00008950E94052A0C940A2B0E94032B58F062
:1053F0000E94FC2A40F029F45F3F29F00C94F32A24
:1054000051110C943E2B0C94F92A0E941B2B68F32B
:105410009923B1F3552391F3951B550BBB27AA276D
:1054200062177307840738F09F5F5F4F220F331FA7
:10543000441FAA1FA9F335D00E2E3AF0E0E832D06F
:1054400091505040E695001CCAF72BD0FE2F29D072
:10545000660F771F881FBB1F261737074807AB0744
:10546000B0E809F0BB0B802DBF01FF2793585F4FB9
:105470003AF09E3F510578F00C94F32A0C943E2BA1
:105480005F3FE4F3983ED4F3869577956795B7959B
:10549000F7959F5FC9F7880F911D9695879597F9A6
:1054A0000895E1E0660F771F881FBB1F621773071F
:1054B0008407BA0720F0621B730B840BBA0BEE1F34
:1054C00088F7E09508950E94232B88F09F5798F065
:1054D000B92F9927B751B0F0E1F0660F771F881FF9
:1054E000991F1AF0BA95C9F714C0B13091F00E9413
:1054F0003D2BB1E008950C943D2B672F782F882722
:10550000B85F39F0B93FCCF3869577956795B39539
:10551000D9F73EF490958095709561957F4F8F4FA8
:105520009F4F0895E89409C097FB3EF490958095AD
:10553000709561957F4F8F4F9F4F9923A9F0F92F59
:1055400096E9BB279395F695879577956795B795D7
:10555000F111F8CFFAF4BB0F11F460FF1BC06F5FBD
:105560007F4F8F4F9F4F16C0882311F096E911C0CF
:10557000772321F09EE8872F762F05C0662371F0F0
:1055800096E8862F70E060E02AF09A95660F771F04
:10559000881FDAF7880F9695879597F90895990FE0
:1055A0000008550FAA0BE0E8FEEF16161706E807ED
:1055B000F907C0F012161306E407F50798F0621B0E
:1055C000730B840B950B39F40A2661F0232B242BE3
:1055D000252B21F408950A2609F4A140A6958FEF02
:1055E000811D811D089597F99F6780E870E060E054
:1055F00008959FEF80EC089500240A94161617066C
:1056000018060906089500240A94121613061406B3
:1056100005060895092E0394000C11F4882352F016
:10562000BB0F40F4BF2B11F460FF04C06F5F7F4FCE
:105630008F4F9F4F089557FD9058440F551F59F0B5
:105640005F3F71F04795880F97FB991F61F09F3F6F
:1056500079F087950895121613061406551FF2CF98
:105660004695F1DF08C0161617061806991FF1CFE8
:1056700086957105610508940895E894BB2766270F
:105680007727CB0197F908950E94CF2A08F48FEF6E
:1056900008950E945C2B0C940A2B0E94FC2A38F07F
:1056A0000E94032B20F0952311F00C94F32A0C9404
:1056B000F92A11240C943E2B0E941B2B70F3959F0A
:1056C000C1F3950F50E0551F629FF001729FBB27F9
:1056D000F00DB11D639FAA27F00DB11DAA1F649F95
:1056E0006627B00DA11D661F829F2227B00DA11D48
:1056F000621F739FB00DA11D621F839FA00D611DCE
:10570000221F749F3327A00D611D231F849F600DEE
:10571000211D822F762F6A2F11249F5750409AF017
:10572000F1F088234AF0EE0FFF1FBB1F661F771FA3
:10573000881F91505040A9F79E3F510580F00C946E
:10574000F32A0C943E2B5F3FE4F3983ED4F3869506
:1057500077956795B795F795E7959F5FC1F7FE2B0E
:10576000880F911D9695879597F908950E94CF2AE5
:10577000880B990B089597FB072E16F4009407D019
:1057800077FD09D00E942E2C07FC05D03EF49095A1
:1057900081959F4F0895709561957F4F0895A1E27F
:1057A0001A2EAA1BBB1BFD010DC0AA1FBB1FEE1F9B
:1057B000FF1FA217B307E407F50720F0A21BB30BE6
:1057C000E40BF50B661F771F881F991F1A9469F762
:1057D00060957095809590959B01AC01BD01CF01BE
:1057E0000895052E97FB1EF400940E94082C57FD87
:1057F00007D00E94CF2B07FC03D04EF40C94082C4A
:1058000050954095309521953F4F4F4F5F4F0895EC
:1058100090958095709561957F4F8F4F9F4F08951C
:105820000E94182C332312F48A1B9B0B0C94292CF6
:10583000A29FB001B39FC001A39F700D811D1124D1
:10584000911DB29F700D811D1124911D08950E941C
:10585000182CB7FF0895821B930B0895AA1BBB1B3E
:1058600051E107C0AA1FBB1FA617B70710F0A61B60
:10587000B70B881F991F5A95A9F780959095BC0181
:10588000CD010895EE0FFF1F0590F491E02D0994CE
:105890000F931F93CF93DF938230910510F482E032
:1058A00090E0E0910204F091030430E020E0B0E0E9
:1058B000A0E0309799F42115310509F44AC0281B5E
:1058C000390B24303105D8F58A819B81611571052A
:1058D00089F1FB0193838283FE0111C040815181D4
:1058E0000281138148175907E0F04817590799F4C6
:1058F000109761F012960C93129713961C933296A0
:10590000CF01DF91CF911F910F9108950093020471
:1059100010930304F4CF2115310551F042175307BA
:1059200038F0A901DB019A01BD01DF01F801C1CF07
:10593000EF01F9CF9093030480930204CDCFFE01D1
:10594000E20FF31F81939193225031093983288309
:10595000D7CF2091000430910104232B41F42091F2
:10596000740130917501309301042093000420915B
:105970007201309173012115310541F42DB73EB705
:105980004091760150917701241B350BE091000482
:10599000F0910104E217F307A0F42E1B3F0B281728
:1059A000390778F0AC014E5F5F4F2417350748F098
:1059B0004E0F5F1F50930104409300048193919315
:1059C0009FCFF0E0E0E09CCFCF93DF930097E9F02A
:1059D000FC01329713821282A0910204B091030459
:1059E000ED0130E020E01097A1F420813181820F99
:1059F000931F20910004309101042817390709F002
:105A000061C0F0930104E0930004DF91CF91089509
:105A1000EA01CE17DF07E8F54A815B819E01411557
:105A20005105B1F7E901FB83EA8349915991C40F0C
:105A3000D51FEC17FD0761F4808191810296840FD8
:105A4000951FE90199838883828193819B838A834F
:105A5000F0E0E0E012968D919C9113970097B9F5D4
:105A60002D913C911197CD010296820F931F2091A9
:105A70000004309101042817390739F6309751F5A1
:105A80001092030410920204B0930104A093000446
:105A9000BCCFD383C28340815181840F951FC81727
:105AA000D90761F44E5F5F4F88819981480F591F74
:105AB000518340838A819B819383828321153105A1
:105AC00009F0B0CFF0930304E09302049ECFFD01F0
:105AD000DC01C0CF13821282D7CF81E090E0F8942E
