:100000000C944B050C94801E0C94591E0C94730593
:100010000C9473050C9473050C9473050C94730580
:100020000C9473050C9473050C9473050C94730570
:100030000C9473050C9473050C9473050C94730560
:100040000C94121E0C9473050C94CD1E0C94A71ED8
:100050000C9473050C9473050C9473050C94730540
:100060000C94FF1E0C94730500000000003E5B4FD3
:100070005B3E3E6B4F6B3E1C3E7C3E1C183C7E3C08
:10008000181C577D571C1C5E7F5E1C00183C180016
:10009000FFE7C3E7FF0018241800FFE7DBE7FF30A6
:1000A000483A060E2629792926407F050507407F14
:1000B00005253F5A3CE73C5A7F3E1C1C08081C1C87
:1000C0003E7F14227F22145F5F005F5F06097F017D
:1000D0007F006689956A606060606094A2FFA29468
:1000E00008047E040810207E201008082A1C080836
:1000F0001C2A08081E101010100C1E0C1E0C303884
:100100003E3830060E3E0E06000000000000005F84
:1001100000000007000700147F147F14242A7F2AA0
:100120001223130864623649562050000807030062
:10013000001C2241000041221C002A1C7F1C2A08AE
:10014000083E080800807030000808080808000011
:1001500060600020100804023E5149453E00427F85
:10016000400072494949462141494D331814127FD4
:100170001027454545393C4A494931412111090774
:100180003649494936464949291E000014000000F5
:1001900040340000000814224114141414140041C7
:1001A00022140802015909063E415D594E7C121184
:1001B000127C7F494949363E414141227F414141BC
:1001C0003E7F494949417F090909013E4141517337
:1001D0007F0808087F00417F41002040413F017FA8
:1001E000081422417F404040407F021C027F7F0470
:1001F00008107F3E4141413E7F090909063E4151B9
:10020000215E7F09192946264949493203017F01A8
:10021000033F4040403F1F2040201F3F4038403FA9
:10022000631408146303047804036159494D4300BF
:100230007F4141410204081020004141417F0402F6
:10024000010204404040404000030708002054548D
:1002500078407F284444383844444428384444286B
:100260007F385454541800087E090218A4A49C78BE
:100270007F0804047800447D40002040403D007F1A
:100280001028440000417F40007C047804787C08FA
:100290000404783844444438FC18242418182424CE
:1002A00018FC7C08040408485454542404043F44B3
:1002B000243C4040207C1C2040201C3C4030403CE2
:1002C00044281028444C9090907C4464544C440042
:1002D00008364100000077000000413608000201A6
:1002E0000204023C2623263C1EA1A161123A404092
:1002F000207A38545455592155557941225454780F
:1003000042215554784020545579400C1E527212A7
:100310003955555559395454545939555454580030
:1003200000457C410002457D420001457C407D1234
:1003300011127DF0282528F07C5455450020545496
:100340007C547C0A097F4932494949323A44444441
:100350003A324A4848303A4141217A3A424020787C
:10036000009DA0A07D3D4242423D3D4040403D3C7D
:1003700024FF2424487E4943662B2FFC2F2BFF09A2
:1003800029F620C0887E0903205454794100004496
:100390007D413048484A32384040227A007A0A0A81
:1003A000727D0D19317D2629292F282629292926F4
:1003B00030484D4020380808080808080808382F39
:1003C00010C8ACBA2F102834FA00007B00000814C3
:1003D0002A142222142A14085500550055AA55AA99
:1003E00055AAFF55FF55FF000000FF00101010FF39
:1003F00000141414FF001010FF00FF1010F010F094
:10040000141414FC001414F700FF0000FF00FF1484
:1004100014F404FC141417101F10101F101F1414D0
:10042000141F00101010F0000000001F101010101A
:100430001F10101010F010000000FF10101010100E
:1004400010101010FF10000000FF140000FF00FF4C
:1004500000001F10170000FC04F4141417101714E8
:1004600014F404F40000FF00F7141414141414140A
:10047000F700F7141414171410101F101F1414147D
:10048000F4141010F010F000001F101F0000001FE7
:1004900014000000FC140000F010F01010FF10FF1A
:1004A000141414FF141010101F00000000F010FFAF
:1004B000FFFFFFFFF0F0F0F0F0FFFFFF0000000093
:1004C00000FFFF0F0F0F0F0F3844443844FC4A4A17
:1004D0004A347E02020606027E027E0263554941CC
:1004E000633844443C04407E201E2006027E020203
:1004F00099A5E7A5991C2A492A1C4C7201724C3017
:100500004A4D4D303048784830BC625A463D3E49ED
:100510004949007E0101017E2A2A2A2A2A44445F91
:10052000444440514A444040444A51400000FF0185
:1005300003E080FF000008086B6B08361236243693
:10054000060F090F060000181800000010100030F8
:1005500040FF0101001F01011E00191D1712003C80
:100560003C3C3C0000000000000103070F1F3F7FE0
:100570000080C0E0F0F8FCFEDB40A4A62EAF200017
:10058000A1C8D300408DAED580A800006000000057
:100590000000000000000000000000E0000000007B
:1005A00000000000000000000001E000000000006A
:1005B000000000000000000001F00000000000004A
:1005C0000000000000000003F00000000000000038
:1005D00000000000000007F0000000000000000024
:1005E000000000000007F80000000000000000000C
:1005F000000000000FF800000003C0007E000001B2
:10060000E0007F0FF800000003C000FE000001E0E2
:1006100000FFEFF800000003C000FE000001E00052
:10062000FFFFF800000003C000F00000000F007F93
:10063000FE7FC0000003C000F00000000F003FFE7E
:100640007FF83FF1FBCFFCFEF3BC3DEFE01FFE7FE8
:10065000FF7FFBFFDFFEFEFFBC3DEFE01FC6FFFF9D
:100660007FFBFFDFFEFEFFBC3DEFE00FE3C7FE7840
:100670007BC3DE1EF0FFBC3DEF0007FF87FC787BED
:10068000C3DE1EF0F83C3DEF0001FFFFF0007BC32E
:10069000C01EF0F03C3DEF0001F37FE03FFBC3CF15
:1006A000FEF0F03C3DEF0003E33F807FFBC3DFFE45
:1006B000F0F03C3DEF0007E73C00787BC3DE1EF026
:1006C000F03C3DEF0007FFBE00787BC3DE1EF0F07C
:1006D0003C3DEF0007FFFE00787BC3DE1EF0F03CE0
:1006E0003DEF000FFFFE007FFBFFDFFEF0F03FFD60
:1006F000EFE00FFFFF007FFBFFDFFEF0F03FFDEFBD
:10070000E00FF9FF003E79F9CF9EF0F01F3DE7E0E2
:100710001FF1FF0000000000000000000000001FAB
:1007200080FF007FFFFFFFFFFFFFFFFFFFE01C00D8
:100730007F007FFFFFFFFEB46D888D18E000001F73
:10074000007FFFFFFFFE95AD7DB577E000000F0055
:100750007FFFFFFFFEA5AD9D8D19E0000006007F25
:10076000FFFFFFFEB5ADEDB57EE00000000000012B
:100770008000000000000000000003800000000076
:10078000000000000007C0000000000000000000A2
:1007900007C00000000000000000000FC0000000C3
:1007A0000000000000001FE000000000000000004A
:1007B000001FE00000000000000000003FE000001B
:1007C000000000000000003FF000000000000000FA
:1007D00000007FF0000000000000001FF87FF00024
:1007E0000000000000003FFE7FF00000000000005D
:1007F000003FFF7FF0000000000000001FFFFBE053
:10080000000000000000000FFFF9FFC00000000022
:1008100000000FFFF9FFF800000000000007FFF1E3
:10082000FFFF00000000000003FC73FFFF800000DA
:1008300000000001FE3FFFFF80000000000000FFFD
:100840001E0FFF000000000000007FFE1FFC0000E4
:1008500000000000003FFFFFF80000000000000063
:100860000FDFFFE0000000000000001F19FFC000C4
:100870000000000000003F3CFF00000000000000FE
:10088000007E7CF800000000000000007FFE7C007D
:1008900000000000000000FFFFFC0000000000005E
:1008A0000000FFFFFE0000000000000000FFFFFE50
:1008B0000000000000000001FFEFFE00000000004B
:1008C000000001FFCFFE0000000000000003FF0752
:1008D000FE0000000000000003FC07FE0000000016
:1008E00000000003F003FE00000000000000018093
:1008F00000FE000000000000000000007E0000007C
:10090000000000000000003E0000000000000000A9
:1009100000000C000000000000078000FC00000345
:10092000C0000000078001FC000003C000000007B9
:100930008001FC000003C0000000078001E000000F
:10094000001E000000078001E00000001E007FE3A1
:10095000F79FF9FDE7787BDFC0FFF7FFBFFDFDFFE5
:10096000787BDFC0FFF7FFBFFDFDFF787BDFC0F0C6
:10097000F787BC3DE1FF787BDE00F0F787BC3DE107
:10098000F0787BDE0000F787803DE1E0787BDE00D9
:100990007FF7879FFDE1E0787BDE00FFF787BFFDF3
:1009A000E1E0787BDE00F0F787BC3DE1E0787BDEBC
:1009B00000F0F787BC3DE1E0787BDE00F0F787BC14
:1009C0003DE1E0787BDE00FFF7FFBFFDE1E07FFB6C
:1009D000DFC0FFF7FFBFFDE1E07FFBDFC07CF3F38B
:1009E0009F3DE1E03E7BCFC0000000000000000022
:1009F000000000FFFFFFFFFFFFFFFFFFFFC0FFFF43
:100A0000FFFFFD68DB111A31C0FFFFFFFFFD2B5A0E
:100A1000FB6AEFC0FFFFFFFFFD4B5B3B1A33C0FFDC
:100A2000FFFFFFFD6B5BDB6AFDC0000000002300E1
:100A30002600290000000000240027002A000000F2
:100A40000000250028002B0004040404040404040E
:100A50000202020202020303030303030202030170
:100A60000204081020408001020408102001020442
:100A7000081020408040000000090003020000042C
:100A8000050800000000000000000000002200FF38
:100A900021002A20DA2A11241FBECFEFD8E0DEBFC2
:100AA000CDBF12E0A0E0B1E0ECE0FEE502C00590B1
:100AB0000D92AC32B107D9F723E0ACE2B2E001C04D
:100AC0001D92AC3EB207E1F715E0CAE4D5E004C0E0
:100AD0002197FE010E94C22DC934D107C9F70E9497
:100AE000AD200C94F92E0C9400000895843081F010
:100AF00028F48230E9F08330F9F00895883071F0FD
:100B0000893091F08530B9F4809180008F7D03C0E9
:100B1000809180008F778093800008958091B0004D
:100B20008F778093B00008958091B0008F7DF9CFCA
:100B300084B58F7784BD089584B58F7DFBCF1F93D7
:100B4000CF93DF93282F30E0F901EA58F54F8491D5
:100B5000F901E15AF54FD491F901E85BF54FC491E1
:100B6000CC23A9F0162F81110E947605EC2FF0E01E
:100B7000EE0FFF1FE25CF54FA591B4918FB7F8948B
:100B8000EC91111108C0D095DE23DC938FBFDF916B
:100B9000CF911F910895DE2BF8CFCF93DF9390E094
:100BA000FC01E15AF54F2491885B954FFC0184913B
:100BB0008823D1F090E0880F991FFC01EC5CF54F81
:100BC000A591B491FC01E25CF54FC591D4916230DE
:100BD00071F49FB7F8943C91822F809583238C9376
:100BE000E8812E2B28839FBFDF91CF9108958FB787
:100BF000F894EC912E2B2C938FBFF6CFCF92DF92EF
:100C0000EF92FF926FB7F8948091F7029091F802FB
:100C1000A091F902B091FA025091F60226B535B3CF
:100C2000432F417030FF04C041E02F3F09F440E002
:100C30006FBF6C017D0137E0CC0CDD1CEE1CFF1C8E
:100C40003A95D1F7C50ED11CE11CF11CC81AD90A7E
:100C5000EA0AFB0A880F991FAA1FBB1FC81AD90AE4
:100C6000EA0AFB0A63E0CC0CDD1CEE1CFF1C6A9553
:100C7000D1F730E0A9ECB5E00E94982D672F782FCE
:100C8000892F99276C0D7D1D8E1D9F1D442321F0FA
:100C900067537A4F8F4F9F4FFF90EF90DF90CF9029
:100CA00008958F929F92AF92BF92CF92DF92EF9270
:100CB000FF924B015C010E94FE056B017C010E94CA
:100CC000FE056C197D098E099F09683E73408105F8
:100CD0009105A8F321E0821A9108A108B10888EED5
:100CE000C80E83E0D81EE11CF11C81149104A104FC
:100CF000B10429F7FF90EF90DF90CF90BF90AF90B5
:100D00009F908F900895F89489B18C7080933402ED
:100D1000809134028C3079F480913202882359F02A
:100D200080914C01815080934C01109233021092BB
:100D3000320278940895809134028430D1F781E0B2
:100D400080933302F6CFF89489B18C70809334028B
:100D5000809134028C3079F480913302882359F0E9
:100D600080914C018F5F80934C011092330210925E
:100D7000320278940895809134028830D1F781E06E
:100D800080933202F6CF089508950895AF92BF92EE
:100D9000CF92DF92EF92FF920F931F93CF93DF9347
:100DA0006C017B018B01040F151FEB015E01AE1876
:100DB000BF08C017D10759F06991D601ED91FC9198
:100DC0000190F081E02DC6010995892B79F7C501C5
:100DD000DF91CF911F910F91FF90EF90DF90CF9017
:100DE000BF90AF900895FC01538D448D252F30E0C6
:100DF000842F90E0821B930B541710F0CF96089528
:100E000001970895FC01918D828D981761F0A28D54
:100E1000AE0FBF2FB11D5D968C91928D9F5F9F731A
:100E2000928F90E008958FEF9FEF0895FC01918DD0
:100E3000828D981731F0828DE80FF11D858D90E03D
:100E400008958FEF9FEF0895FC01918D228D892FDA
:100E500090E0805C9F4F821B91098F7399270895C2
:100E60008FEF92E00E94240721E0892B09F420E013
:100E7000822F089580E090E0892B29F00E943007AE
:100E800081110C9400000895FC01A48DA80FB92FC6
:100E9000B11DA35ABF4F2C91848D90E001968F73A2
:100EA0009927848FA689B7892C93A089B1898C91C1
:100EB000837080648C93938D848D981306C0028810
:100EC000F389E02D80818F7D80830895EF92FF92DA
:100ED0000F931F93CF93DF93EC0181E0888F9B8D5D
:100EE0008C8D98131AC0E889F989808185FF15C017
:100EF0009FB7F894EE89FF896083E889F98980813A
:100F00008370806480839FBF81E090E0DF91CF9108
:100F10001F910F91FF90EF900895F62E0B8D10E02A
:100F20000F5F1F4F0F731127E02E8C8D8E110CC099
:100F30000FB607FCFACFE889F989808185FFF5CFE4
:100F4000CE010E944407F1CFEB8DEC0FFD2FF11D78
:100F5000E35AFF4FF0829FB7F8940B8FEA89FB8921
:100F600080818062CFCFCF93DF93EC01888D88237F
:100F7000B9F0AA89BB89E889F9898C9185FD03C0FC
:100F8000808186FD0DC00FB607FCF7CF8C9185FFE1
:100F9000F2CF808185FFEDCFCE010E944407E9CFDB
:100FA000DF91CF910895EF92FF920F931F93CF930C
:100FB000DF93EC01EC80FD806E157F050CF070C0B6
:100FC00057FF04C0240F351F50E040E08E819F8101
:100FD000FA01E20FF31F8E179F071CF49C01241BDC
:100FE000350B121613060CF05BC0922F842F8695DA
:100FF000869586958E9DD0018F9DB00D11246A0F28
:101000007B1FAF8DB8A1A60FB71F477049F188E0CD
:10101000841B482F682F70E0FB01E059FA4FE491E0
:10102000281708F063C0621B71092FEF30E002C07F
:10103000359527956A95E2F7E2230130110539F0DD
:10104000B0F10230110561F58C91E82702C08C9156
:10105000E82BEC93941720F12C813D81A20FB31F54
:10106000E92FE41BE83078F00230110521F58E2FCE
:101070009C9190959C932C813D81A20FB31F885029
:101080008830B0F7E770EE2359F0F0E0E859FA4FF6
:10109000E49101301105F9F010F10230110519F158
:1010A000DF91CF911F910F91FF90EF900895E09500
:1010B0008C91E823CECF81E00115110509F480E081
:1010C00081959E2F8C932C813D81A20FB31F985048
:1010D0009830C0F7D7CF8C91E82BEC93E1CFE09517
:1010E0008C91E823FACF8C91E827F7CF01301105D6
:1010F00009F4ADCFE0F20230110509F4A5CFAE0D31
:10110000BF1DAECF0F931F93CF93DF9377FF04C024
:10111000260F371F70E060E0DC011496CD91DC9162
:10112000FB01E20FF31FCE17DF071CF49E01261B05
:10113000370B121613064CF5FA0157FD3796A3E04C
:10114000F595E795AA95E1F7EC9FD001ED9FB00DDD
:10115000FC9FB00D11246A0F7B1FDC015F96ED919F
:10116000FC91E60FF71F4770552781E090E001C022
:10117000880F4A95EAF7482F0130110559F0A8F079
:101180002E0F3F1F02301105E1F0DF91CF911F912B
:101190000F9108952E0F3F1FE217F307B1F38191CE
:1011A000DF011197842B8C93F7CF80952E0F3F1F73
:1011B000E217F30751F39191DF01119798239C9364
:1011C000F7CFE217F30709F38191DF011197842725
:1011D0008C93F7CF0F931F93FA01DC0156964C9135
:1011E00056974230E9F04330A1F1413061F5149651
:1011F0004D915C91DA01AE1BBF0BFD01E21BF30BBD
:1012000077FD0BC0DC0116964D915C916417750754
:1012100024F4AB01BF010E9482081F910F91089531
:1012200014964D915C91DA01A61BB70BBD0161507C
:101230007109DC0116964D915C91DA01AE1BBF0B72
:10124000FD01E21BF30B77FDE8CFAF010E94D3074E
:10125000E4CF16964D915C91DA01A61BB70BBD0148
:1012600061507109CDCF0F931F93FA01DC0156969F
:101270004C9156974230A9F0433091F1413019F525
:1012800014964D915C91DA01AE1BBF0BFD013197B5
:10129000F7FD04C0AB01BF010E94D3071F910F915E
:1012A000089516964D915C91DA01AE1BBF0BFD01BE
:1012B0003197DC0114964D915C91DA01A61BB70BB6
:1012C000BD01621B730BF7FDE9CFDC0116964D9152
:1012D0005C91E417F50714F7AF010E948208DECF96
:1012E00016964D915C91DA01A61BB70BBD01621BEE
:1012F000730BCECFFC0177FD64C0808591856817A4
:1013000079070CF05EC057FD5CC082859385481755
:1013100059070CF056C086898230B1F0833029F12C
:10132000813041F484819581841B950BAB01BC0114
:10133000615071092130310509F108F443C02230B0
:10134000310509F463C0089584819581DC01A61BF1
:10135000B70BBD016150710986819781DC01A41B27
:10136000B50BAD0141505109E5CF86819781861BB0
:10137000970BBA01AC0141505109DCCFCA0157FDAE
:101380000796A3E095958795AA95E1F7A481B58185
:101390008A9F90018B9F300D9A9F300D1124620F10
:1013A000731F078CF0A1E02DE60FF71F477055273C
:1013B00021E030E001C0220F4A95EAF78081822BBC
:1013C00080830895CA0157FD079633E09595879568
:1013D0003A95E1F7A481B5818A9F90018B9F300DEA
:1013E0009A9F300D1124620F731F078CF0A1E02D1E
:1013F000E60FF71F4770552781E090E001C0880F86
:101400004A95EAF7809590818923DACFCA0157FD82
:10141000079623E0959587952A95E1F7A481B581F4
:101420008A9F90018B9F300D9A9F300D1124620F7F
:10143000731F078CF0A1E02DE60FF71F47705527AB
:1014400021E030E001C0220F4A95EAF7808182272F
:10145000B7CF08958EBD00000DB407FEFDCF8EB549
:1014600008958CBD9DBD08950895FC016370668B41
:101470008481958126813781613039F0633029F08C
:1014800091878087338722870895318720879387C4
:10149000828708952F923F924F925F926F927F9230
:1014A0008F929F92AF92BF92CF92DF92EF92FF9274
:1014B0000F931F93CF93DF93CDB7DEB76A970FB625
:1014C000F894DEBF0FBECDBF9A8F898F7A83698370
:1014D0004A01D22E18870F833701BC2CDC015996A4
:1014E0002D913C915A972115310509F015C1189697
:1014F0008D919C911997681779070CF0D7C11A96AE
:101500008D919C91481759070CF0D0C14C2C512C4F
:10151000B6E0CB9E600D711D11247C876B8716167B
:1015200017060CF0C3C1EA2DF0E0FA87E98793E0D3
:10153000EE0FFF1F9A95E1F7F88BEF87CF01840F2D
:10154000951F181619060CF0B1C1A98DBA8D5896C1
:101550008C91811104C0BFEABD1508F4D394A98D04
:10156000BA8DED91FC9111970284F385E02DCD01A8
:101570000995B5E0DB9EC0011124E981FA81FC8365
:10158000EB83312C212C9C0128593F4F388F2F8B16
:101590004A2D50E05E8B4D8BEF89F88DE20DF31DE7
:1015A00044919E828D82D12CC12C69817A81620DF9
:1015B000731D7A8B698B842F90E09C8B8B8BE98DCC
:1015C000FA8DA081B18140FF82C0F1E0BF126FC0EF
:1015D000AF126DC01C96ED91FC912F813885A4014E
:1015E0004C0D5D1D69897A89898D9A8D0995EB89E4
:1015F000FC89F595E7954E2F5FEFC51AD50A6D81E9
:101600007E818D899E89680F791F7E836D8398E026
:10161000C916D10481F6AFEF2A1A3A0AEB81FC8190
:10162000E40DF51DFC83EB83F5E02F16310409F082
:10163000B3CF2F81388526153705B9F0A98DBA8D1E
:10164000ED91FC91B1E0BB1257C0AB1255C069815E
:101650007A816B5F7F4F0088F189E02D830128E05C
:1016600030E0A401898D9A8D0995A98DBA8DED91EF
:10167000FC9111970688F789E02DCD016A960FB687
:10168000F894DEBF0FBECDBFDF91CF911F910F91B8
:10169000FF90EF90DF90CF90BF90AF909F908F9092
:1016A0007F906F905F904F903F902F9009941E967F
:1016B000ED91FC91EF80F88409851A8592014D81A6
:1016C0005E816B817C81898D9A8D099590CF2F8168
:1016D00038852615370509F48ACF31E0B31207C0E3
:1016E000A31205C01C96ED91FC91930178CF1E9634
:1016F000ED91FC917301E0CF6B857C8564197509D0
:101700000684F785E02D73010F8518899201A401E5
:10171000898D9A8D0995A9CFF901349694913297C4
:1017200045915491D91AB7E0DB9E400D511D11240B
:10173000F901259134913C8B2B8BFA012590349043
:10174000FA013296749031963491398B32966490C6
:101750003196449041E04C1518F04A1508F07FC0CE
:10176000662D062C000C770B7C836B83842D042C58
:10177000000C990B9E838D83A98DBA8DED91FC9100
:1017800011970284F385E02DCD010995512CD12CC0
:10179000C12CEA2DF0E0FA87E9872B2D30E03C8759
:1017A0002B87A401440D511D47FC5A95588F4F8B30
:1017B00069817A81660D711D67FC7A957E876D87D8
:1017C0007989C71608F051CF2C2D30E04D815E810C
:1017D000420F531FA985BA854A9FC0014B9F900DA8
:1017E0005A9F900D1124FC01E80DF91DF88BEF872D
:1017F000852D612C4F89588D420F531F5E8B4D8B69
:10180000671408F050C044244394480E877041F494
:10181000C1010196EB89FC89E20DF31DD4901C01F6
:10182000D7FE19C0A98DBA8DED91FC91662D70E09F
:10183000B1E0BB1219C0AB1217C02D853E85620FF7
:10184000731F0484F585E02D2F8138854D895E89CD
:10185000898D9A8D0995DD0C6394842DD1CF1E82DC
:101860001D821C821B8288CF4B815C81640F751F97
:10187000AB85BC856A9FC0016B9F900D7A9F900DD0
:10188000112469817A81680F791F0684F785E02D1C
:10189000EF80F88409851A859D014F855889898DC7
:1018A0009A8D0995D8CF570CC3948ACF6A960FB6F4
:1018B000F894DEBF0FBECDBFDF91CF911F910F9186
:1018C000FF90EF90DF90CF90BF90AF909F908F9060
:1018D0007F906F905F904F903F902F9008958F92E0
:1018E0009F92AF92CF92EF92FF920F931F93CF935D
:1018F000DF93EC01262F898D9A8D009709F051C056
:101900006A30D1F41D861C868D8948E0849F900141
:1019100011248E859F85820F931F9F878E8781E07C
:1019200090E0DF91CF911F910F91FF90EF90CF90BA
:10193000AF909F908F9008956D3089F3CC88AD88DB
:101940008F898823C1F08C859D8536E0C39E800DEC
:10195000911D1124488559854817590764F44E850F
:101960005F851D861C8638E0A39EC0011124840F6C
:10197000951F9F878E87EA88FB88088919894E857D
:101980005F856C857D85CE010E944A0A2C898C85F5
:101990009D8546E0249F800D911D11249D878C8795
:1019A000BECF6A3069F41D861C86FC013896E4912E
:1019B0002D898E859F85E29F800D911D1124ADCFCD
:1019C0006D3009F4ACCFFC0134963491631708F400
:1019D000A6CF3296E491E61708F4A1CFFC01329627
:1019E00085909490462F431B342F47E0349F800C02
:1019F000911C1124F401329634913196E4913323F1
:101A0000A9F1EE2399F1CC88F4013596E491AD88E3
:101A10004F89442301F10E2E000CFF0BE30FF11D43
:101A2000CE9EA001CF9E500D11246C857D85460F62
:101A3000571F68857985641775076CF44E855F8537
:101A40001D861C86FC013896E491AE9E400D511D0A
:101A500011245F874E87EA88FB88088919894E859B
:101A60005F856C857D85CE010E944A0AF40134961B
:101A7000E4912C898C859D85E29F800D911D112418
:101A80008DCF682F88EA93E00C946F0C6F927F9251
:101A90008F929F92AF92BF92CF92DF92EF92FF927E
:101AA0000F931F93CF93DF93EC016B015A01390120
:101AB0004801E881F9810284F385E02D0995E881E8
:101AC000F9810288F389E02D87019301A501B60110
:101AD000CE010995A501480D591D41505109E881D4
:101AE000F9810288F389E02D9301B601CE010995B1
:101AF000E881F9810088F189E02D9401A501B60102
:101B0000CE010995C60CD71CB60161507109E88158
:101B1000F9810088F189E02D9401A501CE01099594
:101B2000E881F9810688F789E02DCE01DF91CF9118
:101B30001F910F91FF90EF90DF90CF90BF90AF90EB
:101B40009F908F907F906F9009946F927F928F9269
:101B50009F92AF92BF92CF92DF92EF92FF920F933C
:101B60001F93CF93DF935C01EB016A0149013801B8
:101B70008701DC01ED91FC916217730719F564167A
:101B800075062CF0962D872D3A01C92ED82E960178
:101B9000261937092F5F3F4F048CF58DE02DA301E7
:101BA000BE01C5010995DF91CF911F910F91FF9063
:101BB000EF90DF90CF90BF90AF909F908F907F90ED
:101BC0006F9008954615570591F42617370724F0AE
:101BD000892D4B01C22FD82F9E01281939092F5F5B
:101BE0003F4F068CF78DE02DA601B401DACF0284B9
:101BF000F385E02D0995D501ED91FC910488F589D7
:101C0000E02D83019401A601BE01C5010995D5010E
:101C1000ED91FC910688F789E02DC501DF91CF9108
:101C20001F910F91FF90EF90DF90CF90BF90AF90FA
:101C30009F908F907F906F900994EF92FF920F93F7
:101C40001F93DC011A960D911C911B9718962D91EC
:101C50003C911997ED91FC9100A0F1A1E02D7B0141
:101C600050E040E070E060E009951F910F91FF9017
:101C7000EF9008954F925F926F927F928F929F9212
:101C8000AF92BF92CF92DF92EF92FF920F931F938A
:101C9000CF93DF936C012B015A0139014801DC011C
:101CA000ED91FC910284F385E02D0995E201640C2D
:101CB000751CD601ED91FC91C615D7055CF4008822
:101CC000F189E02D87019401A501BE01C6010995A6
:101CD0002196EFCF0688F789E02DC601DF91CF91DD
:101CE0001F910F91FF90EF90DF90CF90BF90AF903A
:101CF0009F908F907F906F905F904F9009948F92FC
:101D00009F92AF92BF92CF92DF92EF92FF920F938A
:101D10001F93CF93DF93EC015B014A016901E881D6
:101D2000F9810284F385E02D099595012C0D3D1D67
:101D300021503109E881F9810488F589E02D780185
:101D40008401A401B501CE010995E881F9810688D5
:101D5000F789E02DCE01DF91CF911F910F91FF9078
:101D6000EF90DF90CF90BF90AF909F908F900994AD
:101D70008F929F92AF92BF92CF92DF92EF92FF929B
:101D80000F931F93CF93DF93EC015B014A0169012D
:101D90007801E881F9810284F385E02D0995C80C6A
:101DA000D91C860101501109E881F9810488F5895F
:101DB000E02D9501A401B501CE010995E881F981D5
:101DC0000688F789E02DCE01DF91CF911F910F9109
:101DD000FF90EF90DF90CF90BF90AF909F908F904B
:101DE0000994EF92FF920F931F93DC01ED91FC9108
:101DF00000A0F1A1E02D09951F910F91FF90EF90A8
:101E000008950F931F93DC01ED91FC91068CF78DE3
:101E1000E02D09951F910F9108952F923F924F92B7
:101E20005F926F927F928F929F92AF92BF92CF926A
:101E3000DF92EF92FF920F931F93CF93DF93CDB773
:101E4000DEB7A4970FB6F894DEBF0FBECDBF7CA35C
:101E50006BA32A01690138015701261737070CF0D7
:101E600082C1E616F7060CF495C1621773075CF0A1
:101E70003BA12CA1DCA2CBA2C32ED22E382F292F1E
:101E8000C201432E522E2BA13CA12A153B05E1F5A0
:101E90004816590654F0382F292F8415950514F447
:101EA000342D252D2C01832F922F641475042CF0D2
:101EB000861597050CF4C3013201861997099C0118
:101EC0002F5F3F4F01E010E04BA15CA1B30188EA16
:101ED00093E00E94010FA4960FB6F894DEBF0FBEE8
:101EE000CDBFDF91CF911F910F91FF90EF90DF90C9
:101EF000CF90BF90AF909F908F907F906F905F90AA
:101F00004F903F902F900895362D272D3C01832F21
:101F1000922F3A2D2B2DABA0BCA03BA32CA392015A
:101F200026193709A6014A195B09BC016619770908
:101F30007A8B698BABA1BCA1AA19BB09BE83AD8307
:101F40004C01841895086BA17CA16C197D097E87D2
:101F50006D878BA19CA1EBA0FCA08C159D0521F0A9
:101F6000760191E0E91AF108150119861A861B8697
:101F70001C8619821A821B821C8269897A89072E23
:101F8000000C880B990B6B8B7C8B8D8B9E8BCA0105
:101F9000550FAA0BBB0B8F8B988FA98FBA8F4D81D2
:101FA0005E81052E000C660B770B4B8F5C8F6D8F5F
:101FB0007E8FB901330F880B990B6F8F78A389A39C
:101FC0009AA3E214F3040CF45CC069817A818B81DA
:101FD0009C812F89388D498D5A8D0E94712D8301E6
:101FE000020F131F69857A858B859C852B8D3C8D0F
:101FF0004D8D5E8D0E94712DB301620F731F89811B
:102000009A81AB81BC812F8D38A149A15AA1820F41
:10201000931FA41FB51F89839A83AB83BC838985D3
:102020009A85AB85BC852B893C894D895E89820F59
:10203000931FA41FB51F89879A87AB87BC8760173A
:1020400071072CF0962F872FB801092F182F9801B0
:10205000261B370B2F5F3F4F01E010E0A10188EAFC
:1020600093E00E94010F3FEF231A330AAACF342DC9
:10207000252D2C01832F922F3BA12CA1DCA2CBA2DA
:1020800095C0A401092C000C660B770B49835A8379
:102090006B837C8391012C193D09D4010E94902D02
:1020A0006B017C0191012A193B09A989BA890E9417
:1020B000902D4B015C016D857E85072E000C880BF1
:1020C000990B6D877E878F87988B8D819E81092ED6
:1020D000000CAA0BBB0B8D839E83AF83B887ABA18B
:1020E000BCA1A215B3050CF4F6CEC701B6012D852F
:1020F0003E854F8558890E94712D8201020F131F62
:10210000C501B4012D813E814F8158850E94712DFA
:10211000B301620F731F29813A814B815C81C20E2A
:10212000D31EE41EF51E8B899C89AD89BE89880E5D
:10213000991EAA1EBB1E601771072CF0962F872FC1
:10214000B801092F182F9801261B370B2F5F3F4F1F
:1021500001E010E0A10188EA93E00E94010F9FEFE7
:10216000291A390ABCCFE216F3060CF08CCEABA1CB
:10217000BCA1EA16FB060CF47ACF272D3A012C01FC
:10218000802F922F3C2D2D2D6D01FCA2EBA2A32EB2
:10219000B22E6ECEE216F3060CF4C1CE362D272DEC
:1021A0003201432E522E3A2D2B2D5601C32ED22E04
:1021B000B6CE0F931F93DC01ED91FC91048CF58D4D
:1021C000E02D09951F910F910895DC01ED91FC918F
:1021D0000084F185E02D09943F924F925F926F92B7
:1021E0007F928F929F92AF92BF92CF92DF92EF92A7
:1021F000FF920F931F93CF93DF935C017B014A0102
:102200006901390187E0680E711C93E07594679449
:102210009A95E1F72B01400E511E10E000E0312CA1
:10222000D0E0C0E0CE0187709927330C892B59F498
:10223000FE0183E0F595E7958A95E1F7E00FF11F40
:10224000E80DF91D349037FE0AC021E030E0A70107
:10225000B5016C0F7D1F88EA93E00E94E51021967E
:10226000CC16DD06F9F68FEFE81AF80A060D171DF1
:10227000E414F504A9F6DF91CF911F910F91FF901F
:10228000EF90DF90CF90BF90AF909F908F907F9016
:102290006F905F904F903F9008952F923F924F9292
:1022A0005F926F927F928F929F92AF92BF92CF92E6
:1022B000DF92EF92FF920F931F93CF93DF9300D0A3
:1022C00000D000D0CDB7DEB73C016A013E832D833C
:1022D000FC82EB825801A41AB50AB7FE03C0B19480
:1022E000A194B1088D809E80861A970A97FE03C03C
:1022F0009194819491088A149B045CF0902F812F13
:102300000D811E819D838E839C2D8D2D6B01692FE8
:10231000782F0C151D055CF09D818E817E836D8369
:10232000692F782F902F812F8601C92ED82E160164
:10233000201A310A2B012D813E81421A530A57FE81
:1023400003C0519441945108710137FE03C03FEF1F
:10235000E31AF30AF594E7948D819E818617970717
:102360005CF5A1E0B0E0BA83A983C016D1064CF1B8
:10237000D301ED91FC910484F585E02D2B813C8106
:10238000A8016D817E818A149B041CF04D815E81C1
:10239000B801C3010995E418F508F7FE0AC02D81BC
:1023A0003E8189819A81280F391F3E832D83E20C5B
:1023B000F31C0F5F1F4FD9CF2FEF3FEF3A832983D5
:1023C000D4CF26960FB6F894DEBF0FBECDBFDF91F7
:1023D000CF911F910F91FF90EF90DF90CF90BF9022
:1023E000AF909F908F907F906F905F904F903F90B5
:1023F0002F900895089585ED8093BC008091BC00D6
:1024000084FDFCCF1092C502089520919502260FFD
:102410003327331F21323105ECF42091C502FC0132
:1024200090E080E0243069F082E00895A091950268
:102430002191AC014B585D4FA40FB52FB11D2C93CA
:102440000196861798F380919502680F6093950224
:1024500080E0089581E008959B01AC0160E070EC9C
:1024600088EA90E00E944F2D20513109410951091D
:1024700056954795379527952093B8000895E09194
:10248000C7028091C602E81730F4F0E0EB5AFD4F26
:10249000808190E008958FEF9FEF08959091C7029B
:1024A0008091C6022FEF3FEF981748F4E92FF0E034
:1024B000EB5AFD4F208130E09F5F9093C702C90126
:1024C00008958091C6029091C702891B990B0895C7
:1024D000CF92DF92EF92FF920F931F93CF93DF93F0
:1024E0007C01CB018A012091FE02222389F0EB01BD
:1024F0006B01C40ED51ECC15DD0569F06991D701BD
:10250000ED91FC910190F081E02DC7010995F3CF89
:10251000642F0E940512C801DF91CF911F910F9186
:10252000FF90EF90DF90CF900895CF93DF931F92AD
:10253000CDB7DEB769832091FE022223F9F0209106
:10254000FB02203258F021E030E0FC01338322838B
:1025500090E080E00F90DF91CF9108958091FC0290
:10256000E82FF0E0EB5CFD4F998190838F5F8093C3
:10257000FC028093FB0281E090E0ECCF61E0CE01B1
:1025800001960E940512F7CF9091FB0281E09132F3
:1025900008F043C08091C5028111FCCF8091FD02FB
:1025A00022E02093C50221E02093C4022FEF209364
:1025B000B80225E332E03093BA022093B9021092B8
:1025C000BC029093BB021092BD029091BD02880F95
:1025D000892B8093BD028091C302813029F510922E
:1025E000C3028091BD028093BB008091BC0083FD3B
:1025F000F8CF85EC8093BC008091C5028230E1F376
:102600008091B8028F3F91F08091B802803281F0C2
:102610008091B802803371F084E01092FC02109235
:10262000FB021092FE02089585EEE4CF80E0F5CF24
:1026300082E0F3CF83E0F1CFEF92FF920F931F93ED
:10264000CF93DF937C01C62F8091C5039091C60381
:10265000009709F459C02091C90331E03093FE027C
:102660002093FD021092FC021092FB02DC01ED911E
:10267000FC910190F081E02D60E009958701EE2446
:10268000E394F12CD1E0C1508091C5039091C60331
:10269000CF3F91F1B0E2EB16F104D8F00E94C412E2
:1026A0008091C5039091C6032091C903D093FE0287
:1026B0002093FD021092FC021092FB02DC01ED91CE
:1026C000FC910190F081E02D60E00995EE24E39407
:1026D000F12C8091C5039091C603F8016491DC014F
:1026E000ED91FC910190F081E02D0995BFEFEB1A7F
:1026F000FB0A0F5F1F4FC7CFDF91CF911F910F9143
:10270000FF90EF900C94C412E091D503F091D603A2
:1027100090818091DB038095892380838701C1505C
:1027200008F438C0F80184912091C3033091C403A8
:10273000232B29F00E942A0A0F5F1F4FF0CF28E0B9
:1027400030E040E8E091D103F091D2039091D903B9
:10275000582F5423D9F05081952B9083E091D303C7
:10276000F091D40390815091DA03952B9083E091FE
:10277000D303F091D40350819091DA03909595237F
:102780009083469521503109E9F6D6CF5081909536
:102790009523E3CFDF91CF911F910F91FF90EF90A1
:1027A00008951F93CF93DF93EC018D8D9E8D00973D
:1027B00021F1162F29A131E03093FE022093FD0272
:1027C0001092FC021092FB02DC01ED91FC91019051
:1027D000F081E02D60E009958D8D9E8DDC01ED91FD
:1027E000FC910190F081E02D612F09958D8D9E8DDA
:1027F000DF91CF911F910C94C412ADA5BEA59C9101
:102800008BA9809589238C938B8D9C8D892B31F09E
:10281000862FDF91CF911F910C942A0A28E030E097
:1028200080E8A9A5BAA599A9462F4823C1F04C91E3
:10283000942B9C93ABA5BCA59C914AA9942B9C93EB
:10284000ABA5BCA54C919AA9909594239C93869591
:102850002150310931F7DF91CF911F9108954C91AB
:1028600090959423E6CFDF92EF92FF920F931F9300
:10287000CF93DF938091C5039091C603892B09F410
:102880008AC06091DD037091DE038091DF03909137
:10289000E0030E942C1265E08DE89AE00E941C1370
:1028A0006091AC03615088EA93E00E94D1132091BB
:1028B000AE033091AF03C901079697FD079623E059
:1028C000959587952A95E1F72091AC033091AD035A
:1028D000829F8001839F100D929F100D1124C09143
:1028E000C703D091C8038091C5039091C6030C0F14
:1028F0001D1F009709F480C02091C90331E0309377
:10290000FE022093FD021092FC021092FB02DC01F9
:10291000ED91FC910190F081E02D60E40995EE24A9
:10292000E394F12CDD24D3948091C5039091C603E8
:102930000C171D0709F446C0B0E2EB16F104D8F0FD
:102940000E94C4128091C5039091C6032091C903CF
:10295000D092FE022093FD021092FC021092FB0224
:10296000DC01ED91FC910190F081E02D60E409958E
:10297000EE24E394F12C8091C5039091C6036991F4
:10298000DC01ED91FC910190F081E02D0995BFEF04
:10299000EB1AFB0AC9CF8091C3039091C403892B22
:1029A00031F08091E6039091E7030E94310AE091B3
:1029B000D703F091D80390818091DC03809589231F
:1029C000808369CF0E94C4128091C5039091C60391
:1029D000892B09F452C06091E1037091E203809168
:1029E000E3039091E403DF91CF911F910F91FF904A
:1029F000EF90DF900C942C12E091D503F091D60368
:102A000080819091DB03892B80830C171D07E1F2F5
:102A100089912091C3033091C403232B19F00E94A4
:102A20002A0AF3CF28E030E040E8E091D103F091AA
:102A3000D2039091D903582F5423D9F05081952B6C
:102A40009083E091D303F091D40390815091DA0305
:102A5000952B9083E091D303F091D4035081909112
:102A6000DA03909595239083469521503109E9F634
:102A7000CCCF508190959523E3CFE091D703F0918F
:102A8000D80380819091DC03892B8083DF91CF91E3
:102A90001F910F91FF90EF90DF900895CF93C82F73
:102AA0008091C5039091C603892B01F16091DD03EC
:102AB0007091DE038091DF039091E0030E942C125D
:102AC0006C2F88EA93E00E94D1138091C503909106
:102AD000C603892B11F16091E1037091E2038091AB
:102AE000E3039091E403CF910C942C128091C303E3
:102AF0009091C403892B31F08091E6039091E70314
:102B00000E94310AE091D703F091D803908180911F
:102B1000DC03809589238083D3CFE091D703F091A4
:102B2000D80380819091DC03892B8083CF91089515
:102B30001F93CF93DF93EC01162F8D8D9E8D892BE4
:102B4000C9F06DA97EA98FA998AD0E942C1266EAE2
:102B5000111167EACE010E94D1138D8D9E8D892BB4
:102B6000C9F069AD7AAD8BAD9CADDF91CF911F916E
:102B70000C942C128B8D9C8D892B21F08EAD9FADEA
:102B80000E94310AEFA5F8A990818CA9809589232C
:102B90008083DDCFEFA5F8A980819CA9892B808354
:102BA000DF91CF911F91089590E080E00895CF9339
:102BB000DF93C82FD1EF813039F0823019F0D1EF97
:102BC000CFEF02C0D0E2C1E081E80E944E158C2F09
:102BD0000E944E1589ED0E944E158D2FDF91CF91E9
:102BE0000C944E152F923F924F925F926F927F926C
:102BF0008F929F92AF92BF92CF92DF92EF92FF920D
:102C00000F931F93CF93DF93782E562E442E322EA0
:102C1000202ED1E0612C741408F042C0C52D872C01
:102C2000912C54018FEFA81AB80AC31598F5CC2E31
:102C3000D12CC51108C030E020E0A601B50188EA1A
:102C400093E00E947A0930E020E0A6014F5F5F4FD9
:102C5000B40188EA93E00E947A09211012C0DD23B2
:102C600061F086010E5F1F4FF12CE12C9501A6014A
:102C7000B50188EA93E00E94A50D81E0D827CE5FD8
:102C8000D4CF30E020E0A601B50188EA93E00E94AD
:102C90007A09F5CF73947394D62D81E06826BBCF63
:102CA000DF91CF911F910F91FF90EF90DF90CF9028
:102CB000BF90AF909F908F907F906F905F904F905C
:102CC0003F902F900895CF92DF92EF92FF920F9353
:102CD0001F93CF93DF93CDB7DEB761970FB6F8940C
:102CE000DEBF0FBECDBF082F8FEF92E00E942407FA
:102CF000181619060CF053C161E070E080E090E016
:102D00000E94510610E0E4E0FE2EF3E0EF2E8FEF7C
:102D100092E00E942407181619060CF076C08FEF77
:102D200092E0113108F467C00E9402072091C802A6
:102D30002223B1F01631A0F02981233489F42A81AD
:102D4000203571F4163171F499278630910514F00D
:102D500085E090E088589E4FDC018C9180930001C3
:102D60001F5FD5CF1A3119F480934201F9CF103289
:102D700069F499278630910514F085E090E0885831
:102D80009E4FFC01808180930101EACF143219F437
:102D900080934301E5CF1A3289F4863008F7E09238
:102DA000710199278630910514F085E090E08858EC
:102DB0009E4FDC018C9180930201D2CF1E3239F4F8
:102DC00020917101233061F680934401C9CF1433FF
:102DD00009F0DAC0863020F6F0927101992786302A
:102DE000910514F085E090E088589E4FFC018081A9
:102DF00080930301B5CF0E940207E1E0F0E0EC0F01
:102E0000FD1FE10FF11D8083ABCF8981833409F071
:102E100072C0103108F469C08A818D3031F58F811C
:102E200080936B01FE01389630E020E090E080E076
:102E3000C12CD12C7601C394A191B701A601022E19
:102E400004C0440F551F661F771F0A94D2F7AA23A8
:102E500009F446C0842B952B2F5F3F4F2A30310554
:102E600059F79093CA028093C9028A81863009F487
:102E700058C08A81843009F07BC08B818B3F49F434
:102E80008D818B3231F48E81863019F48F8180935D
:102E90006B011E3080F18D818A3269F58E81893017
:102EA00051F58885845F80934A018C85845F809387
:102EB0004B01898590E0982F88272A85820F911DE4
:102EC00090934701809346018D8590E0982F882745
:102ED0002E85820F911D90934901809348010BC06C
:102EE0004095509584239523B7CF193008F0BDCF76
:102EF000163008F0BECF011152C062E170E080E0F0
:102F000090E061960FB6F894DEBF0FBECDBFDF91A3
:102F1000CF911F910F91FF90EF90DF90CF900C9485
:102F200051068E81843009F0A4CFE2E4F1E0AE01D5
:102F3000495F5F4F6DE6E62E61E0F62E66E471E0D4
:102F40008191DA012D91AD0130E090E02817390729
:102F50000CF4C901D7018D937D016E177F0781F7AE
:102F600088CF853309F095CF8091EA02826009C04D
:102F7000823009F08ECF8F81833399F78091EA02F6
:102F800081608093EA0285CF183309F0E9CE209161
:102F90007101243009F0E4CE80934501E1CE6196C1
:102FA0000FB6F894DEBF0FBECDBFDF91CF911F915A
:102FB0000F91FF90EF90DF90CF9008958F92AF9296
:102FC000CF92EF920F931F93CF93DF93CDB7DEB7DE
:102FD0002C970FB6F894DEBF0FBECDBF182F1C86FE
:102FE0001B8682E489838CEF860F8A8383E0861BAD
:102FF0008B8381E08C834D832E830F83E886C98683
:10300000AA868B8670E0FE01E60FF71FA80CAC0CB9
:10301000EA0C0E0D200F240F2083AB01BE016F5F61
:103020007F4F8FEF92E00E94C60681E0111107C02A
:1030300064E070E080E090E00E94510680E00E9431
:1030400063162C960FB6F894DEBF0FBECDBFDF918E
:10305000CF911F910F91EF90CF90AF908F900895E7
:103060008F92AF92CF92EF920F93812CA12CC12C13
:10307000E12C00E020E04AE267E080E00E94DE17F9
:1030800023E04AE267E080E00E94DE1724E04AE2A3
:1030900067E080E00E94DE1725E04AE267E080E01A
:1030A0000E94DE1726E04AE267E080E00E94DE1719
:1030B00027E04AE267E080E00E94DE1729E04AE26A
:1030C00067E080E00E94DE17EE24E39401E021E057
:1030D0004BE269E080E00E94DE170F91EF90CF9005
:1030E000AF908F9008958F92AF92CF92EF920F93FF
:1030F000082F6430B1F040F06530D9F00F91EF90B7
:10310000CF90AF908F900895812CA12CCC24C394A4
:10311000E82E062F24E04BE26AE081E00E94DE17F1
:10312000EDCF812CA12CCC24C394EE24E39427E092
:10313000F2CF812CA12CC12CEE24E39426E04BE2AB
:1031400069E0EBCFFC0101900020E9F73197AF0176
:10315000481B590BBC0188EA93E00C94C6068F9279
:103160009F92AF92BF920F931F93CF93DF93CDB7F0
:10317000DEB7A1970FB6F894DEBF0FBECDBF19A280
:10318000423008F44AE08E010F5D1F4F842E912CCF
:10319000B12CA12CA50194010E944F2DE62FB9015D
:1031A000CA01EA30F4F4E05DD801EE938D01232BDF
:1031B000242B252B79F790E080E0109719F0CD01B2
:1031C0000E94A218A1960FB6F894DEBF0FBECDBF25
:1031D000DF91CF911F910F91BF90AF909F908F90F3
:1031E0000895E95CE1CF8F929F92AF92BF92CF9208
:1031F000DF92EF92FF921F93CF93DF936B017C01DD
:10320000B42E20E030E0A9010E946C2BD0E0C0E099
:1032100087FF08C08DE20E94410DEC01F7FAF0949F
:10322000F7F8F09410E060E070E080E09FE31B1599
:1032300041F020E030E040E251E40E94712B1F5F3A
:10324000F6CFA70196010E94002B6B017C010E9422
:10325000E32B4B015C014AE00E94AF18C80FD91F55
:103260001123B1F1C501B4010E94122C9B01AC01E4
:10327000C701B6010E94FF2A6B017C018EE20E9409
:10328000410DC80FD91F115018F120E030E040E285
:1032900051E4C701B6010E94C92C4B015C010E9498
:1032A000E32B6B01F12CE12C4AE0C701B6010E942F
:1032B000AF18C80FD91FC701B6010E94122C9B017D
:1032C000AC01C501B4010E94FF2A6B017C01DBCF78
:1032D000CE01DF91CF911F91FF90EF90DF90CF90C3
:1032E000BF90AF909F908F900895009711F00C942D
:1032F000A21890E080E00895EF92FF920F931F9341
:10330000CF93DF93F82EE62ECA016F113DC01092C5
:10331000B9031092B80321E030E03093BB0320934F
:10332000BA030091B4031091B5030E947519C091BE
:10333000B403D091B503DD27EF1014C0B80177278F
:103340009E01261B370B2F5F3F4F61507109EE2402
:10335000E394F12C0AE010E04AE250E088EA93E0BE
:103360000E94460D2796D093B503C093B4038BE219
:1033700090E09093B7038093B603DF91CF911F91B4
:103380000F91FF90EF90089521E030E03093B90362
:103390002093B8031092BB031092BA03C2CFEF92EE
:1033A000FF920F931F93CF93C82FF12CE12C00E1D4
:1033B00010E020E830E040E350E070E060E088EAB0
:1033C00093E00E943A0E85E090E09093B5038093DD
:1033D000B40381E390E09093B7038093B60382E057
:1033E0008093BC038093BD0381E090E09093BB0386
:1033F0008093BA039093B9038093B80384EE91E06D
:103400000E947519C11111C087EE91E00E947519D3
:103410000E9433146CE271E080E090E0CF911F9144
:103420000F91FF90EF900C945106EE24E394F12C51
:103430000EE010E023E030E041E350E063E270E0B2
:1034400088EA93E00E943A0EEEE3EE2EF12C0DE2B4
:1034500010E021E330E04DE250E068E370E086E206
:1034600090E00E940D0F05E310E021E330E045E31A
:1034700050E068E370E08EE290E00E940D0FC230F1
:1034800079F462E0E62EF12C00E110E025E130E075
:1034900040E350E062E270E088EA93E00E943A0E76
:1034A0004EE3E42EF12C03E410E028E330E04AE49C
:1034B00050E061E370E083E490E00E940D0FEE24A1
:1034C000E394F12C0EE010E023E030E041E350E023
:1034D0006CE470E088EA93E00E943A0E23E030E06A
:1034E00041E350E061E570E088EA93E00E943A0E23
:1034F000C33079F432E0E32EF12C00E110E023E157
:1035000030E040E350E062E470E088EA93E00E943B
:103510003A0E9EE3E92EF12C0FE510E028E330E0AF
:1035200046E650E061E370E08FE590E00E940D0F09
:1035300007E610E028E330E04EE650E061E370E09B
:1035400087E690E00E940D0FEE24E394F12C0EE04C
:1035500010E023E030E041E350E06FE670E088EAFD
:1035600093E00E943A0EC43079F482E0E82EF12C08
:1035700000E110E025E130E040E350E06EE570E06E
:1035800088EA93E00E943A0ECF911F910F91FF902D
:10359000EF900C9433148F92AF92CF92EF920F93DF
:1035A000082F0E94CF19812CA12CC12CEE24E3946A
:1035B00028E04BE269E081E00E94DE1762E370E000
:1035C00080E090E00E9451068091EC02816080933F
:1035D000EC020F91EF90CF90AF908F900895CF9322
:1035E000C82F8AEF91E0CA3010F48FEE91E00E946C
:1035F00075196C2F70E090E080E04AE0CF910C9458
:10360000AF18CF92DF92EF92FF920F931F93CF9359
:10361000DF93D82E862FF42EC22E9091710113E0E5
:10362000933008F415E0CD2DD0E0D093B503C093CE
:10363000B4031092B7031092B60391E09093BC03C9
:103640009093BD030E94410DCE0101969093B50366
:103650008093B4038BE090E09093B7038093B6031C
:103660001093BC031093BD038F2D0C3309F0869586
:103670000E94EF1A0C33E1F0F0FE1AC0212F30E067
:1036800087E0189FA0011124455F5F4F421B530B39
:10369000BE018CE0189F600D711D112461507109ED
:1036A000EE24E394F12C890188EA93E00E943A0E1B
:1036B000CC2051F04091B4034D5F00E02EE26BE06E
:1036C00081E08D0D0E94F215DF91CF911F910F9136
:1036D000FF90EF90DF90CF9008952F923F924F92FE
:1036E0005F926F927F928F929F92AF92BF92CF9292
:1036F000DF92EF92FF920F931F93CF93DF9300D04F
:1037000000D000D01F92CDB7DEB7D82E6E834F8386
:1037100081E08093BC038093BD0381E090E09093AF
:10372000BB038093BA039093B9038093B8036430CA
:1037300009F470C1653009F4BDC1611152C1423054
:1037400008F0E7C014E6412E609171019E81961742
:1037500008F047C170E084E290E00E943B2D6B01CD
:10376000AE818A2F90E0FC01EE5BFE4FA080B0910D
:103770004D01BD83FC01E359FE4F208080509F4FD7
:10378000FC01B080CB010396A89F502C1124652C1E
:10379000712C4B01F7E08F1A910897FE04C04B0182
:1037A00026E0821A910895948794860C971C82E7EC
:1037B00090E09093B5038093B4039092B703809206
:1037C000B6039CE3822DA91286950E94EF1AACE302
:1037D000AA1691F020FE10C0EE24E394F12C02E032
:1037E00010E022E030E0A4014B5F5F4F6EE770E035
:1037F00088EA93E00E943A0E1092B5031092B40347
:103800009092B7038092B6038B2D0E94410DB12C8C
:10381000E22DF0E0FA83E983249C10011124FF815A
:10382000F11125C0C101B5010E943B2D9B01EE2481
:10383000E394F12C8601A3016AE070E088EA93E04A
:103840000E943A0E2D818E81281769F0252D2C0DAE
:10385000C101B5010E943B2D4BE0460F0F81652D44
:103860008AE00E94F2159E819F5F9E836DCFB60114
:10387000660D771D61507109430121E0821A91089C
:103880007B010DE610E094014DE650E08AE090E007
:103890000E940D0FC60101969C838B83C101B50167
:1038A0000E943B2D3B019501A981BA812A1B3B0B4C
:1038B000429EC001439E900D1124B5010E943B2DF4
:1038C0009B012F5F3F4FB301665F7F4FF12CE12CCF
:1038D0000B811C81A40188EA93E00E943A0EB2E0B9
:1038E000B983E9816E2F70E0661577050CF0AACFD9
:1038F000665F7F4FF12CE12C0B811C8122E030E0D0
:10390000A40188EA93E00E943A0EF981FC5FF983F2
:10391000E8CF80917101843070F5E0E8CE2ED12C93
:1039200060917101AE81A61708F05BC0EA2FF0E04C
:103930008F010E5B1E4F21E030914D013A1301C003
:1039400020E0CF0183599E4F5C01E050FF4F70E0B3
:10395000C6010E943B2D862FD8010C91D5014C91B8
:103960006081BE81B89F802D11240E94011BEE81D1
:10397000EF5FEE83D5CF52E4C52E51E0D52E6DE634
:10398000862E61E0962E70E0A72E71E0B72E198288
:10399000D6010D916D01F40141914F01D5016D9159
:1039A0005D0121E080914D01BE818B1301C020E0BB
:1039B00089810E94011BEE81EF5FEE83F981F65D44
:1039C000F983E33029F780914D01833051F4009160
:1039D000450120E0409170016091030184E50E945F
:1039E000011B27960FB6F894DEBF0FBECDBFDF9147
:1039F000CF911F910F91FF90EF90DF90CF90BF90EC
:103A0000AF909F908F907F906F905F904F903F907E
:103A10002F90089584E190E09093B5038093B403D0
:103A200031E3A32EB12CB092B703A092B60381EF7D
:103A300091E00E947519F12CE12C00E110E02AE1DF
:103A400030E040E350E061E270E088EA93E00E94F9
:103A50003A0E83E290E09093B5038093B403B09262
:103A6000B703A092B60382E08093BC038093BD03AA
:103A70000D2D10E0000F111F01581E4FD8018C9121
:103A80000E94410DF80181810E94410DFF81FF23B9
:103A900009F4A7CF22E0E22EF12C00E110E02AE1A8
:103AA00030E040E350E061E270E088EA93E00E9499
:103AB0003A0E97CF82E490E09093B5038093B403DD
:103AC00091E3A92EB12CB092B703A092B60384EF74
:103AD00091E00E947519F12CE12C00E110E02EE03C
:103AE00030E040E350E065E570E088EA93E00E9452
:103AF0003A0E87E590E09093B5038093B403B092BB
:103B0000B703A092B60382E08093BC038093BD0309
:103B10006D2D70E06F5F7F4F072E000C880B990BA7
:103B200040E10E94AF182F81222309F45ACF82E08E
:103B3000E82EF12C2EE030E040E350E065E570E047
:103B4000B4CFCF93DF930E94A218EC0188EF91E0ED
:103B50000E94A2188C0F9D1FDF91CF910895209194
:103B6000AE033091AF03C901079697FD079623E096
:103B7000959587952A95E1F72091AC033091AD0397
:103B8000829FA001839F500D929F500D112470E0E1
:103B900060E08091C7039091C8030C94F22E0E94BC
:103BA000AF1D4091E00260E080916D010E946D1BAD
:103BB00090914D0180917101981305C089E00E9498
:103BC000CF190C94331441E08091D202813009F076
:103BD00040E064E08091EB020E946D1B41E0809127
:103BE000D202823009F040E065E080916B010E94D2
:103BF0006D1BE7CF0E94ED2E1F93CF93DF93EC0157
:103C0000162F0E94E92A181739F0612FCE01DF9193
:103C1000CF911F910C94F12ADF91CF911F910895BC
:103C20000C94E92A1F920F920FB60F9211244F9312
:103C30005F936F937F938F939F934091F70250917F
:103C4000F8026091F9027091FA028091F602909167
:103C5000F5029A3119F51092F5029091F50295301E
:103C600008F1845C8D3700F18D574E5F5F4F6F4FC9
:103C70007F4F8093F6024093F7025093F8026093CF
:103C8000F9027093FA029F918F917F916F915F91EA
:103C90004F910F900FBE0F901F9018959F5F9093BC
:103CA000F502DBCF835CDECF4F5F5F4F6F4F7F4FFF
:103CB000E0CF1F920F920FB60F9211242F933F93D4
:103CC0004F935F936F937F938F939F93AF93BF9324
:103CD000EF93FF93E0910601F09107010995FF91A1
:103CE000EF91BF91AF919F918F917F916F915F9174
:103CF0004F913F912F910F900FBE0F901F901895ED
:103D00001F920F920FB60F9211242F933F934F9350
:103D10005F936F937F938F939F93AF93BF93EF9333
:103D2000FF93E0910401F09105010995FF91EF9156
:103D3000BF91AF919F918F917F916F915F914F91C3
:103D40003F912F910F900FBE0F901F9018951F92CB
:103D50000F920FB60F9211242F933F934F935F93BF
:103D60006F937F938F939F93AF93BF93EF93FF9343
:103D70008FEF92E00E944407FF91EF91BF91AF91C6
:103D80009F918F917F916F915F914F913F912F9173
:103D90000F900FBE0F901F9018951F920F920FB6A5
:103DA0000F9211242F938F939F93EF93FF93E091A2
:103DB0000F03F09110038081E0911503F091160339
:103DC00082FD1BC09081809118038F5F8F732091BB
:103DD0001903821741F0E0911803F0E0E150FD4F24
:103DE000958F80931803FF91EF919F918F912F9161
:103DF0000F900FBE0F901F9018958081F4CF1F92E7
:103E00000F920FB60F9211242F933F934F935F930E
:103E10006F937F938F939F93AF93BF93EF93FF9392
:103E20008091B900887F803609F44AC0F0F5883265
:103E300009F4A7C018F5803109F49BC0B8F48823B1
:103E400009F405C1883009F494C0FF91EF91BF9146
:103E5000AF919F918F917F916F915F914F913F9122
:103E60002F910F900FBE0F901F901895883109F475
:103E700088C0803251F78093B80214C0803409F4AE
:103E8000A5C040F48033B9F38833F9F68093B802C3
:103E900085ECBCC0803509F489C0883509F49EC022
:103EA000883499F60E94FB11D0CF883909F494C068
:103EB00038F5883729F050F4883611F0803729F624
:103EC00083E08093C5021092B70257C0883809F486
:103ED00083C0803919F0803809F0B7CF8091B702DC
:103EE000803208F079C0E091B70281E08E0F8093B4
:103EF000B7028091BB00F0E0E956FD4F80833DC0E2
:103F0000803B39F0E0F4803A09F485C0883A09F042
:103F10009CCF84E08093C502109296021092950285
:103F2000E091C102F091C202099580919502811140
:103F30000FC081E0809395021092750209C0803C09
:103F400009F4A6CF883C09F4A3CF883B09F07DCFC4
:103F5000E091960281E08E0F80939602F0E0EB589C
:103F6000FD4F80818093BB009091960280919502D5
:103F700031C08091BD028093BB0085EC8093BC0072
:103F800064CF9091BC028091BB029817B8F58091E4
:103F9000B9029091BA02E091BC0221E02E0F209369
:103FA000BC02E80FF92FF11D8081E5CF2091B90205
:103FB0003091BA02E091BC0281E08E0F8093BC0286
:103FC0008091BB00E20FF32FF11D80839091BC0222
:103FD0008091BB02981788F285E8D0CF2091B90272
:103FE0003091BA02E091BC0281E08E0F8093BC0256
:103FF0008091BB00E20FF32FF11D80838091C402FA
:10400000811150CF81E08093C30284EA8093BC0089
:104010001092C5021ACF85EC8093BC001092C502A5
:104020008091B702803230F4E091B702F0E0E956B7
:10403000FD4F10826091B70270E0E091BF02F091F5
:10404000C00287E992E009951092B702FECE109265
:10405000B80228CFEFEFF2E01382128248EE53E06D
:1040600060E070E0448355836683778388E991E05C
:104070009183808385EC90E09587848784EC90E041
:104080009787868780EC90E0918B808B81EC90E025
:10409000938B828B82EC90E0958B848B86EC90E006
:1040A000978B868B118E128E138E148EACE9B3E033
:1040B00013961C921E92129714964D935D936D93D6
:1040C0007C9317978AEA91E011969C938E93E8EA85
:1040D000F3E01382128220E830E03583248380E409
:1040E00090E0978386833187208793878287168A1B
:1040F000158614861786168681E0858B848B2FEFB4
:104100003FEF338B228B318B208B878B108E128E5F
:10411000118E8CEB91E091838083148E138EB68F79
:10412000A58F10A2178E8FEF84A385A386A387A3E4
:1041300080A780E89AE1A6E0B0E085AB96ABA7AB9C
:10414000B0AF80EA96E8A1E0B0E081AF92AFA3AF54
:10415000B4AF80E586AF17AE0895CF93DF9300D05C
:104160001F92CDB7DEB7789484B5836084BD85B5E2
:10417000836085BD80916E00816080936E0082E0D7
:104180008093810080918100816080938100809183
:1041900080008160809380008091B1008460809372
:1041A000B1008091B00081608093B00086E8809378
:1041B0007A001092C10062E082E00E94CD0562E0C8
:1041C00083E00E94CD0562E085E00E94CD0583E892
:1041D00096E09093050180930401809169008360CB
:1041E00080936900E89A83EA96E0909307018093B0
:1041F0000601809169008C6080936900E99A8AE0E9
:1042000090E00E94101E91E0811101C090E0909317
:10421000C80286E190E00E94101E8093690184E04C
:1042200090E00E94101E80934D01C0907101CA82DF
:1042300012E4A12E11E0B12E0DE6C02E01E0D02E29
:104240008DEEE82E82E0F82E10E000E02A810217C1
:10425000C0F4D501ED915D01E983C8010E94101EF3
:1042600090E0F9812F2F30E0821793070CF49C0126
:10427000D6012D936D01F70121937F010F5F1F4F31
:10428000E5CF85E090E00E94101E90E0843091051B
:1042900014F083E090E08093680186E090E00E9453
:1042A000101E8093E002833010F01092E00288E04C
:1042B00090E00E94101E91E0811101C090E0909367
:1042C000CB0289E090E00E94101E8093EB02809167
:1042D000C7039091C803892B11F10E94AF1D209153
:1042E000AE033091AF038091AC039091AD032132C6
:1042F00031050CF0BBC0B9016052710977FF02C0F3
:104300006F5F7F4F759567958357910997FD01966C
:1043100000E210E023E730E04AE855E0BAC020911F
:10432000AE033091AF03C901079697FD0796B3E03E
:1043300095958795BA95E1F72091AC033091AD033F
:104340006C01C29EC001C39E900DD29E900D11249F
:104350000E94C82D9093C8038093C703892B09F04E
:10436000BCCF809168010E94D7150E94AF1D0E94AA
:104370003314E0910F03F091100382E08083E09109
:104380000B03F0910C031082E0910D03F0910E03EA
:1043900085E0808310921703E0911303F0911403DA
:1043A00086E08083E0911103F09112038081886997
:1043B0008083E0911103F091120380818F7D8083CF
:1043C00064EA76E080E090E00E9451060E94301896
:1043D00080916B018E3041F464EA76E080E090E0F9
:1043E0000E9451060E9430180E94CF1D19828091B0
:1043F00071011981181708F437C266246394712C6F
:104400002FB7F8948091F7029091F802A091F902E9
:10441000B091FA022FBF8093F1029093F202A09321
:10442000F302B093F402D12C80917101D81608F0F8
:1044300030C20D2D10E0980123593E4F7901D9016A
:104440008C9103511D4FF8019081891769F090916B
:10445000EC0291609093EC026D2D90E00E94731835
:10446000D7018C91F8018083D394DECFB9016054D9
:10447000710977FF02C06F5F7F4F75956795825511
:10448000910997FD019600E410E022E530E04AE64C
:1044900057E0959587950E94EC1082E08093CA03BF
:1044A0008091C5039091C603892B09F4A7C08CE3C2
:1044B0008093C9031092C7021092C6021092FC02A8
:1044C0001092FB021092C50281E08093C402109208
:1044D000C30261E082E10E949F0561E083E10E94E6
:1044E0009F058091B9008E7F8093B9008091B900BB
:1044F0008D7F8093B9008FE28093B80085E480932C
:10450000BC0083EC96E09093C2028093C10284ECDD
:1045100096E09093C0028093BF028091D00387FD04
:104520001EC061E00E94CD0561E08091D0030E9431
:104530009F0561E070E080E090E00E94510660E03D
:104540008091D0030E949F056AE070E080E090E0D7
:104550000E94510661E08091D0030E949F058091E6
:10456000C5039091C603892B09F409C16091DD034D
:104570007091DE038091DF039091E0030E942C1282
:1045800064E086E895E00E941C136091AE036150E0
:1045900088EA93E00E94D11364E082E895E00E94EB
:1045A0001C138091CA0360E1813009F064E188EA5C
:1045B00093E00E94D11364E08EE795E00E941C1303
:1045C0008FE88093E5038091AC039091AD03803830
:1045D000910509F0EDC08091AE039091AF03803456
:1045E000910509F035C18091CA03813009F0DEC020
:1045F0008FE98093E50302E10983EEC061E08091D9
:10460000CE030E94CD0561E08091CF030E94CD05CD
:104610008091CE03082E000C990BFC01E85BF54F4E
:10462000E491F0E0EE0FFF1FE25CF54F259134912D
:104630003093D6032093D503FC01E15AF54FE49162
:10464000E093DB038091CF03082E000C990BFC0153
:10465000E85BF54FE491F0E0EE0FFF1FE25CF54FF1
:10466000A591B491B093D803A093D703FC01E15A6C
:10467000F54FE491E093DC038C91E82BEC9380916F
:10468000C3039091C403892B09F436C0DFB6D982E5
:10469000F8948091BE02811127C0E2E5FAE084918E
:1046A000E9E6FAE09491E82FF0E0EE0FFF1FEC5CF2
:1046B000F54FA591B491EC91E92321F461E08AE0F2
:1046C0000E949F0561E08AE00E94CD058CB5806163
:1046D0008CBD8CB580648CBD61E08DE00E94CD0501
:1046E00061E08BE00E94CD058091BE028F5F8093D8
:1046F000BE02E980EFBE11CF61E08091CC030E9441
:10470000CD0561E08091CD030E94CD058091CC0361
:10471000082E000C990BFC01E85BF54FE491F0E0EA
:10472000EE0FFF1FE25CF54F259134913093D203D9
:104730002093D103FC01E15AF54FE491E093D903B2
:104740008091CD03082E000C990BFC01E85BF54F1E
:10475000E491F0E0EE0FFF1FE25CF54FA591B491FC
:10476000B093D403A093D303FC01E15AF54FE49135
:10477000E093DA038C91E095E823EC93CECE809120
:10478000C3039091C403892B31F08091E60390918B
:10479000E7030E94310AE091D703F091D80390819A
:1047A0008091DC03809589238083EACE8FEC21CF32
:1047B0008036910579F48091AE039091AF034097D4
:1047C00009F046C08091CA03813009F03FC080E102
:1047D0008093E50312E019836AED88EA93E00E9472
:1047E000D113698188EA93E00E94D11361E888EAD5
:1047F00093E00E94D1136091E50388EA93E00E9460
:10480000D11369ED88EA93E00E94D1138091CA0325
:1048100062E2813009F061EF88EA93E00E94D113EF
:1048200066E088E795E00E941C138091C503909193
:10483000C603892B79F06091E1037091E2038091C6
:10484000E3039091E4030E942C128BCD8FEAC0CF3A
:1048500002E0D2CEE091D703F091D803808190910D
:10486000DC03892B80837DCDC9802C2D30E0F901BC
:10487000E359FE4F808123513D4FD9019C91891707
:1048800021F06C2D90E00E94731809810F5F09835D
:10489000AECD8091EB0290916C01891769F09091F7
:1048A000EC0291609093EC0264E090E00E94731837
:1048B0008091EB0280936C0180916B0190916A0171
:1048C0008917A9F09091EC0291609093EC028E30E0
:1048D00051F065E090E00E9473188091EB0264E073
:1048E00090E00E94731880916B0180936A0180911F
:1048F000EA028823B1F080FF0DC0812CA12CC0906A
:104900006901EE24E39402E020E043E36AE080E002
:104910000E94DE178091EA0281FD0E9430181092F9
:10492000EA0280916801833039F58091E802909124
:10493000E90201969093E9028093E8020196E1F47E
:1049400081E480937C0080917A00806480937A0077
:1049500080917A0086FDFCCF80917800909179005B
:10496000843001E090070CF4E1C0873693400CF4EA
:10497000DFC082E00E94D7158091E702882321F1F1
:104980008091F1029091F202A091F302B091F402B1
:104990004091E3025091E4026091E5027091E602D9
:1049A000841B950BA60BB70B89359B41A105B1055F
:1049B00058F08091EC021092E7021092E2021092FD
:1049C000E10281608093EC028091EC0280FF5CC187
:1049D0001091E702123009F4ADC0143009F4BFC2DF
:1049E000113009F039C3D090E1028091E2028823AE
:1049F00009F4D5C2ED2DF0E0EE0FFF1FEA57FE4F90
:104A0000808191818E55914009F044C0D090680119
:104A10001093BC031093BD03F12CE12C0AE010E0CD
:104A200020E830E04AE250E070E060E088EA93E09D
:104A30000E943A0E42E050E05093B5034093B40315
:104A40008BE290E09093B7038093B60340E052E08E
:104A50006D2D80E00E947C1945E152E06D2D81E0D2
:104A60000E947C194DEF51E06D2D82E00E947C196F
:104A700049E152E06D2D83E00E947C1981E090E0D5
:104A80009093BB038093BA039093B9038093B803C8
:104A90000E943314E091E102F0E0EE0FFF1FEA57AD
:104AA000FE4F808191818155914009F0E8C0D090FE
:104AB000E00281E08093BC038093BD03F12CE12CE4
:104AC0000AE010E020E830E04AE250E070E060E008
:104AD00088EA93E00E943A0EE2E0F0E0F093B5033A
:104AE000E093B4038BE290E09093B7038093B60316
:104AF0004EE152E06D2D80E00E947C1943E252E0CD
:104B00006D2D81E00E947C1948E252E06D2D82E01B
:104B10000E947C19CC24C394D12CD092BB03C092A8
:104B2000BA03D092B903C092B803A7C080E022CFE5
:104B300081E020CF0E94AF1D1092B5031092B40304
:104B40001092B7031092B60381E08093BC03809368
:104B5000BD038CE291E00E94A11D6AE4A62E61E0F3
:104B6000B62E76E4872E71E0972E198211E010930D
:104B7000BC031093BD03C980C11074C18FEE91E0D6
:104B80000E9475191092B5031092B4035AE0E52EF5
:104B9000F12CF092B703E092B6038DEF91E00E9402
:104BA00075198FEE91E00E94751983E092E00E94E2
:104BB00075198FEE91E00E9475198FEE91E00E94B9
:104BC00075198FEE91E00E94751986E092E00E94BF
:104BD000A11D12E01093BC031093BD0309810130A5
:104BE00009F04DC102E010E01B830A8310E000E0F1
:104BF00020914E018A819B81800F911F28171906F1
:104C000009F043C11092B9031092B8037092BB032C
:104C10006092BA030115110509F440C1D401CD9089
:104C2000DC900D2C000CEE08FF084AE0C701B6012D
:104C3000F7FE0BC08DE20E94410D66277727CB015E
:104C40006C197D098E099F094AE00E94AF18709285
:104C5000B9036092B8031092BB031092BA030130FB
:104C6000110509F00FC1FFEFAF1ABF0A02E0800E75
:104C7000911C1981113009F0F2C00E943314809107
:104C8000EC028E7F8093EC02EBE7FAE08491E4E69D
:104C9000FAE01491EDE4FAE00491002379F0811137
:104CA0000E947605E02FF0E0EE0FFF1FE65DF54F66
:104CB000A591B491EC911E2381E009F480E08093EA
:104CC000500190914F014091F1025091F202609198
:104CD000F3027091F402891759F0891708F0BFC1E7
:104CE0004093DC025093DD026093DE027093DF029A
:104CF0008091D702823008F02DC3882309F4EAC1DD
:104D00008091D8029091D902A091DA02B091DB0291
:104D10007A018B01E81AF90A0A0B1B0BD801C701AB
:104D20008B3F9105A105B10508F4D4C18091D30250
:104D30009091D402A091D502B091D6028A3F9105FC
:104D4000A105B10508F0E4C28091E702823009F4C0
:104D5000B2C1843009F46FC2813009F0ADC28091D4
:104D6000E20281111092E702E091E102F0E0EE0F21
:104D7000FF1FEA57FE4F208131812E55314071F4DB
:104D8000882331F06091680185E090E00E94FC1D6D
:104D90008091E20291E089278093E202E091E102B2
:104DA000F0E0EE0FFF1FEA57FE4F808191818155A1
:104DB000914081F48091E202882331F06091E00219
:104DC00086E090E00E94FC1D8091E20291E089273C
:104DD0008093E202E091E102F0E0EE0FFF1FEA575C
:104DE000FE4F808191818653914061F46091CB02A6
:104DF00081E068276093CB0288E090E00E94FC1D70
:104E00001092E702E091E102F0E0EE0FFF1FEA5797
:104E1000FE4F8081918131E08C32930709F014C2FA
:104E200082E08093E7028091EC0281608093EC0243
:104E3000E091E102F0E0EE0FFF1FEA57FE4F8081A4
:104E4000918151E08631950709F00FC284E080938B
:104E5000E7028091EC0281608093EC0234C101E0B2
:104E6000098384CE1092B5031092B40304E210E0DB
:104E70001093B7030093B60380E092E090CE1B82BC
:104E80001A82B4CE01E010E0B3CE7092B903609202
:104E9000B8031092BB031092BA03BCCEF501608137
:104EA0006C50770B072E000C880B990B0E94142C6A
:104EB00020E030E040E05FE30E94C92C6B017C0100
:104EC000AC019B010E94362D882389F089E092E095
:104ED0000E94A2187092B9036092B8031092BB03AB
:104EE0001092BA038FEE91E00E947519B8CE1601A8
:104EF0002701E89457F82FEF3FEF4FE75FE7C20134
:104F0000B1010E94362D81110DC02FEF3FEF4FE709
:104F10005FE7C201B1010E946C2B18161CF48DE0F2
:104F200092E0D6CF2FEF3FEF4FE75FE4C701B60126
:104F30000E94C42C18161CF481E192E0C9CF2FEF17
:104F40003FEF4FE75FECC701B6010E946C2B87FD76
:104F5000F3CF41E0C701B6010E94F318BBCF0E9416
:104F6000AF1D1092B5031092B4031092B7031092C4
:104F7000B60381E08093BC038093BD0386E191E09A
:104F80000E94A11D6091690170E090E080E04AE01C
:104F90000E94AF1888EF91E00E94A2186ECE0E9486
:104FA000AF1D1093BC031093BD031092B503109274
:104FB000B4031092B7031092B6030D2D0C7FC02ED0
:104FC00010E0000F111F0A571E4F95E0B92EBC0CC0
:104FD000CB1469F126E02C1550F18BEF91E0DC1435
:104FE00011F08FEE91E00E9475198FEE91E00E9412
:104FF0007519D801ED90FD908D01C7010E947519BA
:10500000BFE1EB16B1E0FB0661F48FEE91E00E9488
:1050100075196091C80270E090E080E04AE00E945B
:10502000AF1888EF91E00E94A218C394D1CFE5E6B3
:10503000F0E0F093B503E093B403B9E3CB2ED12CA9
:10504000D092B703C092B60342E06AE979E981E001
:1050500092E40E94F31811CE0E94CF1D10CE8091D1
:10506000D7024093D8025093D9026093DA0270932A
:10507000DB020091DC021091DD022091DE02309112
:10508000DF026A017B01C01AD10AE20AF30A970122
:1050900086010F3111052105310508F429CE8F5FF6
:1050A0008093D7020093D3021093D4022093D502A9
:1050B0003093D6021DCE80914E018F5F843008F070
:1050C000B7C080934E018091EC0281608093EC0226
:1050D0001092D7028091500180934F0181E00E948D
:1050E00063164091F1025091F2026091F3027091C7
:1050F000F4028091CD029091CE02A091CF02B091A6
:10510000D0026A017B01C81AD90AEA0AFB0AD70150
:10511000C60189389341A105B10520F48091D202DE
:10512000833010F01092D2029091D2028091CC0282
:10513000891789F08091EC0281608093EC02809164
:105140006B01923021F0913021F48091EB02809339
:10515000D1029093CC0280914C01803809F432C185
:1051600000914C01403A1FE051076105710508F4B8
:10517000FFC00058110B8091CB02882319F01195C4
:105180000195110980E880934C014093E30250930C
:10519000E4026093E5027093E6028091E7028230B8
:1051A00009F4E9C0843009F479C1813009F088C17B
:1051B0008091E10290E02091E202222309F474C17F
:1051C000880F991FFC01EA57FE4F808191818E550F
:1051D000914099F480916801800F912F911D843046
:1051E000910514F083E090E097FD80E080936801E2
:1051F000833009F4E2C00E94D715E091E102F0E0AB
:10520000EE0FFF1FEA57FE4F80819181815591403B
:1052100009F0D3C08091E002080F111D0330110581
:1052200014F002E010E017FD00E00093E002C5C0BA
:1052300010924E0148CF6091690186E190E00E9492
:10524000FC1D1092E7023FCF8F51914009F0F0CD45
:105250006091C80281E068276093C8028AE090E00C
:105260000E94FC1D1092E702E3CD8850914009F0A6
:105270002ACF60914D0184E090E00E94FC1D609176
:105280006D0190E080E00E94FC1D60916E0181E064
:1052900090E00E94FC1D60916F0182E090E00E940E
:1052A000FC1D6091700183E090E00E94FC1D609104
:1052B000EB0289E090E0C3CF8091D202823039F4D2
:1052C0008091D10280936B011092D202FCCE81308A
:1052D00029F48091D1028093EB02F6CF80914D01A9
:1052E0008F5F80934D0190E041E050E02091EB0210
:1052F000223011F050E040E020917101240F352F51
:10530000311D821793070CF4DECE10924D01DBCED7
:1053100030914D012091710132130BC089389341B6
:10532000A105B10520F080E00E94CB1AD1CE83E028
:10533000FBCF81E08093E7028091EC028160809353
:10534000EC024093E3025093E4026093E502709311
:10535000E602BECE8091D2028F5F8093D20240934C
:10536000CD025093CE026093CF027093D002B0CEA4
:1053700010E000E000CF80914E01811133C0809198
:105380004A01080F111D0931110514F008E110E060
:1053900017FD00E000934A01A0904601C09047012C
:1053A000E0904A0154EFE50E8824839400E029E060
:1053B0004BE26CE081E00E94DE178091EC0281609C
:1053C0008093EC0280E090E0892B11F40C94002291
:1053D0000E943007882311F40C9400220E940000E0
:1053E0000C9400228130E1F48AE0809F9001819F3B
:1053F000300D11248091460190914701820F931F37
:10540000893E23E0920714F088EE93E08A309105FC
:1054100014F48AE090E09093470180934601BCCF5A
:105420008230C9F480914B01080F111D093111051B
:1054300014F008E110E017FD00E000934B01A0908C
:105440004801C0904901E0904B0184EFE80E8824A8
:10545000839401E0ACCF8330E9F484E6809F90012F
:10546000819F300D11248091480190914901820F54
:10547000931F813137E2930714F080E197E2883E71
:1054800043E0940714F488EE93E0909349018093ED
:105490004801D5CF823008F47FCFD1CF8091690108
:1054A000080F0093690189CF080F191F07301105F4
:1054B00014F006E010E017FD00E00093E1027DCF5C
:1054C000992309F455C04093CD025093CE026093C6
:1054D000CF027093D00210161106BCF401E010E068
:1054E000923099F56091D1022091C9023091CA029F
:1054F0006A3070F06093D10241E065E08091D102A2
:105500000E946D1B0E9433145DCF0FEF1FEFE8CF99
:10551000C801860F911D8A30910514F089E090E052
:1055200097FD80E0682FA901082E02C05595479588
:105530000A94E2F740FF03C08093D102DDCF81508F
:105540008830B0F280916B01F7CF913089F480916F
:10555000D102800F912F911D8330910514F082E0CC
:1055600090E097FD80E08093D10241E064E0C8CFF5
:1055700020914D0180917101281308C084E010161C
:1055800011060CF082E00E94CB1A1CCF30E0F9012A
:10559000E359FE4F80812E5B3E4FD9012C9130E0C4
:1055A000080F111D201731070CF4890117FD00E0C9
:1055B000008308CF8CEB91E09093A9038093A8031C
:1055C0008091C7039091C803009711F00C94642E4A
:1055D0000895F999FECF92BD81BDF89A992780B5BB
:1055E0000895262FF999FECF1FBA92BD81BD20BD27
:1055F0000FB6F894FA9AF99A0FBE0196089550588A
:10560000BB27AA270E94172B0C948A2C0E947C2C63
:1056100038F00E94832C20F039F49F3F19F426F4CF
:105620000C94792C0EF4E095E7FB0C94732CE92F85
:105630000E949B2C58F3BA176207730784079507DB
:1056400020F079F4A6F50C94BD2C0EF4E0950B2E09
:10565000BA2FA02D0B01B90190010C01CA01A001C4
:105660001124FF27591B99F0593F50F4503E68F11F
:105670001A16F040A22F232F342F4427585FF3CF60
:10568000469537952795A795F0405395C9F77EF431
:105690001F16BA0B620B730B840BBAF09150A1F07A
:1056A000FF0FBB1F661F771F881FC2F70EC0BA0F00
:1056B000621F731F841F48F4879577956795B79588
:1056C000F7959E3F08F0B0CF9395880F08F0992783
:1056D000EE0F9795879508950E944F2C08F481E06E
:1056E00008950E94852B0C948A2C0E94832C58F0DC
:1056F0000E947C2C40F029F45F3F29F00C94732C1D
:1057000051110C94BE2C0C94792C0E949B2C68F3A4
:105710009923B1F3552391F3951B550BBB27AA276A
:1057200062177307840738F09F5F5F4F220F331FA4
:10573000441FAA1FA9F335D00E2E3AF0E0E832D06C
:1057400091505040E695001CCAF72BD0FE2F29D06F
:10575000660F771F881FBB1F261737074807AB0741
:10576000B0E809F0BB0B802DBF01FF2793585F4FB6
:105770003AF09E3F510578F00C94732C0C94BE2C9B
:105780005F3FE4F3983ED4F3869577956795B79598
:10579000F7959F5FC9F7880F911D9695879597F9A3
:1057A0000895E1E0660F771F881FBB1F621773071C
:1057B0008407BA0720F0621B730B840BBA0BEE1F31
:1057C00088F7E09508950E94A32C88F09F5798F0E1
:1057D000B92F9927B751B0F0E1F0660F771F881FF6
:1057E000991F1AF0BA95C9F714C0B13091F00E9410
:1057F000BD2CB1E008950C94BD2C672F782F88271D
:10580000B85F39F0B93FCCF3869577956795B39536
:10581000D9F73EF490958095709561957F4F8F4FA5
:105820009F4F0895E89409C097FB3EF490958095AA
:10583000709561957F4F8F4F9F4F9923A9F0F92F56
:1058400096E9BB279395F695879577956795B795D4
:10585000F111F8CFFAF4BB0F11F460FF1BC06F5FBA
:105860007F4F8F4F9F4F16C0882311F096E911C0CC
:10587000772321F09EE8872F762F05C0662371F0ED
:1058800096E8862F70E060E02AF09A95660F771F01
:10589000881FDAF7880F9695879597F90895990FDD
:1058A0000008550FAA0BE0E8FEEF16161706E807EA
:1058B000F907C0F012161306E407F50798F0621B0B
:1058C000730B840B950B39F40A2661F0232B242BE0
:1058D000252B21F408950A2609F4A140A6958FEFFF
:1058E000811D811D089597F99F6780E870E060E051
:1058F00008959FEF80EC089500240A941616170669
:1059000018060906089500240A94121613061406B0
:1059100005060895092E0394000C11F4882352F013
:10592000BB0F40F4BF2B11F460FF04C06F5F7F4FCB
:105930008F4F9F4F089557FD9058440F551F59F0B2
:105940005F3F71F04795880F97FB991F61F09F3F6C
:1059500079F087950895121613061406551FF2CF95
:105960004695F1DF08C0161617061806991FF1CFE5
:1059700086957105610508940895E894BB2766270C
:105980007727CB0197F908950E944F2C08F48FEFE9
:1059900008950E94DC2C0C948A2C0E947C2C38F0F8
:1059A0000E94832C20F0952311F00C94732C0C94FE
:1059B000792C11240C94BE2C0E949B2C70F3959F83
:1059C000C1F3950F50E0551F629FF001729FBB27F6
:1059D000F00DB11D639FAA27F00DB11DAA1F649F92
:1059E0006627B00DA11D661F829F2227B00DA11D45
:1059F000621F739FB00DA11D621F839FA00D611DCB
:105A0000221F749F3327A00D611D231F849F600DEB
:105A1000211D822F762F6A2F11249F5750409AF014
:105A2000F1F088234AF0EE0FFF1FBB1F661F771FA0
:105A3000881F91505040A9F79E3F510580F00C946B
:105A4000732C0C94BE2C5F3FE4F3983ED4F3869500
:105A500077956795B795F795E7959F5FC1F7FE2B0B
:105A6000880F911D9695879597F908950E944F2C60
:105A7000880B990B089597FB072E16F4009407D016
:105A800077FD09D00E94AE2D07FC05D03EF490951D
:105A900081959F4F0895709561957F4F0895A1E27C
:105AA0001A2EAA1BBB1BFD010DC0AA1FBB1FEE1F98
:105AB000FF1FA217B307E407F50720F0A21BB30BE3
:105AC000E40BF50B661F771F881F991F1A9469F75F
:105AD00060957095809590959B01AC01BD01CF01BB
